{
  "_format": "hh-sol-artifact-1",
  "contractName": "Bhoomi",
  "sourceName": "contracts/Bhoomi.sol",
  "abi": [
    {
      "inputs": [
        {
          "internalType": "uint256",
          "name": "_fee",
          "type": "uint256"
        },
        {
          "internalType": "uint256",
          "name": "_stakeFee",
          "type": "uint256"
        },
        {
          "internalType": "contract BMToken",
          "name": "_token",
          "type": "address"
        },
        {
          "internalType": "uint256",
          "name": "_valueOfToken",
          "type": "uint256"
        },
        {
          "internalType": "contract NFTmint",
          "name": "_nftMint",
          "type": "address"
        },
        {
          "internalType": "contract BMToken1155",
          "name": "_nftMint1155",
          "type": "address"
        }
      ],
      "stateMutability": "nonpayable",
      "type": "constructor"
    },
    {
      "anonymous": false,
      "inputs": [
        {
          "indexed": true,
          "internalType": "address",
          "name": "_to",
          "type": "address"
        },
        {
          "indexed": false,
          "internalType": "uint256",
          "name": "_id",
          "type": "uint256"
        }
      ],
      "name": "NFTMINTED",
      "type": "event"
    },
    {
      "anonymous": false,
      "inputs": [
        {
          "indexed": true,
          "internalType": "address",
          "name": "_to",
          "type": "address"
        },
        {
          "indexed": false,
          "internalType": "uint256",
          "name": "_id",
          "type": "uint256"
        },
        {
          "indexed": false,
          "internalType": "uint256",
          "name": "_amt",
          "type": "uint256"
        }
      ],
      "name": "NFTMINTED1155",
      "type": "event"
    },
    {
      "anonymous": false,
      "inputs": [
        {
          "indexed": true,
          "internalType": "address",
          "name": "_from",
          "type": "address"
        },
        {
          "indexed": false,
          "internalType": "string",
          "name": "_name",
          "type": "string"
        },
        {
          "indexed": false,
          "internalType": "string",
          "name": "_uri",
          "type": "string"
        },
        {
          "indexed": false,
          "internalType": "uint256",
          "name": "_reqID",
          "type": "uint256"
        }
      ],
      "name": "ReqFile",
      "type": "event"
    },
    {
      "anonymous": false,
      "inputs": [
        {
          "indexed": true,
          "internalType": "address",
          "name": "own",
          "type": "address"
        },
        {
          "indexed": false,
          "internalType": "uint256",
          "name": "_id",
          "type": "uint256"
        },
        {
          "indexed": false,
          "internalType": "uint256",
          "name": "_percentage",
          "type": "uint256"
        }
      ],
      "name": "RequestOWN",
      "type": "event"
    },
    {
      "anonymous": false,
      "inputs": [
        {
          "indexed": true,
          "internalType": "address",
          "name": "_from",
          "type": "address"
        },
        {
          "indexed": false,
          "internalType": "uint256",
          "name": "_id",
          "type": "uint256"
        },
        {
          "indexed": false,
          "internalType": "uint256",
          "name": "_amt",
          "type": "uint256"
        }
      ],
      "name": "RequestToBUY",
      "type": "event"
    },
    {
      "inputs": [],
      "name": "bmToken",
      "outputs": [
        {
          "internalType": "contract BMToken",
          "name": "",
          "type": "address"
        }
      ],
      "stateMutability": "view",
      "type": "function"
    },
    {
      "inputs": [
        {
          "internalType": "uint256",
          "name": "_amtOftoken",
          "type": "uint256"
        }
      ],
      "name": "buyFundToken",
      "outputs": [
        {
          "internalType": "bool",
          "name": "",
          "type": "bool"
        }
      ],
      "stateMutability": "payable",
      "type": "function"
    },
    {
      "inputs": [],
      "name": "chargeFee",
      "outputs": [
        {
          "internalType": "uint256",
          "name": "",
          "type": "uint256"
        }
      ],
      "stateMutability": "view",
      "type": "function"
    },
    {
      "inputs": [
        {
          "internalType": "uint256",
          "name": "_reqId",
          "type": "uint256"
        }
      ],
      "name": "claimStake",
      "outputs": [],
      "stateMutability": "nonpayable",
      "type": "function"
    },
    {
      "inputs": [],
      "name": "contAdd",
      "outputs": [
        {
          "internalType": "address",
          "name": "",
          "type": "address"
        }
      ],
      "stateMutability": "view",
      "type": "function"
    },
    {
      "inputs": [
        {
          "internalType": "uint256",
          "name": "_reqId",
          "type": "uint256"
        }
      ],
      "name": "endRequest",
      "outputs": [
        {
          "internalType": "bool",
          "name": "res",
          "type": "bool"
        }
      ],
      "stateMutability": "nonpayable",
      "type": "function"
    },
    {
      "inputs": [
        {
          "internalType": "address",
          "name": "user",
          "type": "address"
        }
      ],
      "name": "getStake",
      "outputs": [
        {
          "internalType": "uint256",
          "name": "",
          "type": "uint256"
        }
      ],
      "stateMutability": "view",
      "type": "function"
    },
    {
      "inputs": [],
      "name": "nftMint",
      "outputs": [
        {
          "internalType": "contract NFTmint",
          "name": "",
          "type": "address"
        }
      ],
      "stateMutability": "view",
      "type": "function"
    },
    {
      "inputs": [],
      "name": "nftMint1155",
      "outputs": [
        {
          "internalType": "contract BMToken1155",
          "name": "",
          "type": "address"
        }
      ],
      "stateMutability": "view",
      "type": "function"
    },
    {
      "inputs": [],
      "name": "noOfValidators",
      "outputs": [
        {
          "internalType": "uint256",
          "name": "",
          "type": "uint256"
        }
      ],
      "stateMutability": "view",
      "type": "function"
    },
    {
      "inputs": [],
      "name": "owneradd",
      "outputs": [
        {
          "internalType": "address",
          "name": "",
          "type": "address"
        }
      ],
      "stateMutability": "view",
      "type": "function"
    },
    {
      "inputs": [
        {
          "internalType": "string",
          "name": "_uri",
          "type": "string"
        },
        {
          "internalType": "string",
          "name": "_name",
          "type": "string"
        }
      ],
      "name": "proposeRequest",
      "outputs": [],
      "stateMutability": "nonpayable",
      "type": "function"
    },
    {
      "inputs": [
        {
          "internalType": "uint256",
          "name": "_reqId",
          "type": "uint256"
        },
        {
          "internalType": "uint256",
          "name": "_amt",
          "type": "uint256"
        }
      ],
      "name": "requestToBuy",
      "outputs": [],
      "stateMutability": "nonpayable",
      "type": "function"
    },
    {
      "inputs": [
        {
          "internalType": "uint256",
          "name": "",
          "type": "uint256"
        }
      ],
      "name": "requests",
      "outputs": [
        {
          "internalType": "uint256",
          "name": "reqID",
          "type": "uint256"
        },
        {
          "internalType": "address",
          "name": "from",
          "type": "address"
        },
        {
          "internalType": "string",
          "name": "name_req_for_owner",
          "type": "string"
        },
        {
          "internalType": "string",
          "name": "uri",
          "type": "string"
        },
        {
          "internalType": "enum Bhoomi.Status",
          "name": "status",
          "type": "uint8"
        },
        {
          "internalType": "bool",
          "name": "final_decision",
          "type": "bool"
        },
        {
          "internalType": "uint256",
          "name": "finalisedAt",
          "type": "uint256"
        },
        {
          "internalType": "uint256",
          "name": "totalWinningVotes",
          "type": "uint256"
        }
      ],
      "stateMutability": "view",
      "type": "function"
    },
    {
      "inputs": [
        {
          "internalType": "uint256",
          "name": "",
          "type": "uint256"
        },
        {
          "internalType": "uint256",
          "name": "",
          "type": "uint256"
        }
      ],
      "name": "requestsBuy",
      "outputs": [
        {
          "internalType": "uint256",
          "name": "reqID",
          "type": "uint256"
        },
        {
          "internalType": "address",
          "name": "from",
          "type": "address"
        },
        {
          "internalType": "uint256",
          "name": "amt",
          "type": "uint256"
        },
        {
          "internalType": "enum Bhoomi.StatusBuy",
          "name": "status",
          "type": "uint8"
        },
        {
          "internalType": "address",
          "name": "land_owner",
          "type": "address"
        },
        {
          "internalType": "uint256",
          "name": "percentage_owner",
          "type": "uint256"
        }
      ],
      "stateMutability": "view",
      "type": "function"
    },
    {
      "inputs": [
        {
          "internalType": "uint256",
          "name": "_reqId",
          "type": "uint256"
        },
        {
          "internalType": "uint256",
          "name": "_buyId",
          "type": "uint256"
        },
        {
          "internalType": "bool",
          "name": "result",
          "type": "bool"
        }
      ],
      "name": "respondBuy",
      "outputs": [],
      "stateMutability": "nonpayable",
      "type": "function"
    },
    {
      "inputs": [
        {
          "internalType": "uint256",
          "name": "_reqId",
          "type": "uint256"
        },
        {
          "internalType": "uint256",
          "name": "_buyId",
          "type": "uint256"
        },
        {
          "internalType": "uint256",
          "name": "_percentageOffer",
          "type": "uint256"
        }
      ],
      "name": "respondOwn",
      "outputs": [],
      "stateMutability": "nonpayable",
      "type": "function"
    },
    {
      "inputs": [
        {
          "internalType": "uint256",
          "name": "stakeAmt",
          "type": "uint256"
        }
      ],
      "name": "stake",
      "outputs": [],
      "stateMutability": "nonpayable",
      "type": "function"
    },
    {
      "inputs": [],
      "name": "stakeFee",
      "outputs": [
        {
          "internalType": "uint256",
          "name": "",
          "type": "uint256"
        }
      ],
      "stateMutability": "view",
      "type": "function"
    },
    {
      "inputs": [
        {
          "internalType": "address",
          "name": "",
          "type": "address"
        }
      ],
      "name": "stakeHolders",
      "outputs": [
        {
          "internalType": "uint256",
          "name": "",
          "type": "uint256"
        }
      ],
      "stateMutability": "view",
      "type": "function"
    },
    {
      "inputs": [],
      "name": "totalStaked",
      "outputs": [
        {
          "internalType": "uint256",
          "name": "",
          "type": "uint256"
        }
      ],
      "stateMutability": "view",
      "type": "function"
    },
    {
      "inputs": [
        {
          "internalType": "address",
          "name": "",
          "type": "address"
        }
      ],
      "name": "validators",
      "outputs": [
        {
          "internalType": "bool",
          "name": "",
          "type": "bool"
        }
      ],
      "stateMutability": "view",
      "type": "function"
    },
    {
      "inputs": [],
      "name": "valueTobuyToken",
      "outputs": [
        {
          "internalType": "uint256",
          "name": "",
          "type": "uint256"
        }
      ],
      "stateMutability": "view",
      "type": "function"
    },
    {
      "inputs": [
        {
          "internalType": "uint256",
          "name": "",
          "type": "uint256"
        },
        {
          "internalType": "uint256",
          "name": "",
          "type": "uint256"
        }
      ],
      "name": "votemap",
      "outputs": [
        {
          "internalType": "address",
          "name": "validator",
          "type": "address"
        },
        {
          "internalType": "bool",
          "name": "option",
          "type": "bool"
        }
      ],
      "stateMutability": "view",
      "type": "function"
    },
    {
      "inputs": [
        {
          "internalType": "uint256",
          "name": "_reqId",
          "type": "uint256"
        },
        {
          "internalType": "bool",
          "name": "option",
          "type": "bool"
        }
      ],
      "name": "voting",
      "outputs": [],
      "stateMutability": "nonpayable",
      "type": "function"
    },
    {
      "inputs": [],
      "name": "withdrawStake",
      "outputs": [],
      "stateMutability": "nonpayable",
      "type": "function"
    }
  ],
  "bytecode": "0x608060405260006005556000600a553480156200001b57600080fd5b5060405162004c0938038062004c098339818101604052810190620000419190620002f2565b600160008190555033600160006101000a81548173ffffffffffffffffffffffffffffffffffffffff021916908373ffffffffffffffffffffffffffffffffffffffff16021790555030600260006101000a81548173ffffffffffffffffffffffffffffffffffffffff021916908373ffffffffffffffffffffffffffffffffffffffff160217905550856003819055508460048190555083600660006101000a81548173ffffffffffffffffffffffffffffffffffffffff021916908373ffffffffffffffffffffffffffffffffffffffff16021790555081600760006101000a81548173ffffffffffffffffffffffffffffffffffffffff021916908373ffffffffffffffffffffffffffffffffffffffff16021790555080600860006101000a81548173ffffffffffffffffffffffffffffffffffffffff021916908373ffffffffffffffffffffffffffffffffffffffff160217905550826009819055505050505050506200038e565b600080fd5b6000819050919050565b620001c981620001b4565b8114620001d557600080fd5b50565b600081519050620001e981620001be565b92915050565b600073ffffffffffffffffffffffffffffffffffffffff82169050919050565b60006200021c82620001ef565b9050919050565b600062000230826200020f565b9050919050565b620002428162000223565b81146200024e57600080fd5b50565b600081519050620002628162000237565b92915050565b600062000275826200020f565b9050919050565b620002878162000268565b81146200029357600080fd5b50565b600081519050620002a7816200027c565b92915050565b6000620002ba826200020f565b9050919050565b620002cc81620002ad565b8114620002d857600080fd5b50565b600081519050620002ec81620002c1565b92915050565b60008060008060008060c08789031215620003125762000311620001af565b5b60006200032289828a01620001d8565b96505060206200033589828a01620001d8565b95505060406200034889828a0162000251565b94505060606200035b89828a01620001d8565b93505060806200036e89828a0162000296565b92505060a06200038189828a01620002db565b9150509295509295509295565b61486b806200039e6000396000f3fe6080604052600436106101815760003560e01c80637f089e27116100d1578063bed9d8611161008a578063f0cadfc011610064578063f0cadfc014610596578063fa52c7d8146105c1578063fbb27e5c146105fe578063fe02a1f61461062757610181565b8063bed9d86114610519578063c868f9e814610530578063e26ff10a1461055957610181565b80637f089e27146103d1578063817b1cd21461040157806381d12c581461042c57806386e7d64a14610470578063a694fc3a146104b2578063bb77a325146104db57610181565b80633e814b341161013e578063719414b411610118578063719414b414610313578063744c8c091461033e5780637a33c398146103695780637a7664601461039457610181565b80633e814b341461029657806344c7d6ef146102c15780635a4f459a146102ea57610181565b806303c35d1e1461018657806317f44048146101b15780631b69016f146101ee578063222c97771461021757806323954e85146102425780633e4fd7f21461026d575b600080fd5b34801561019257600080fd5b5061019b610652565b6040516101a89190612f23565b60405180910390f35b3480156101bd57600080fd5b506101d860048036038101906101d39190612f88565b610678565b6040516101e59190612fd0565b60405180910390f35b3480156101fa57600080fd5b5061021560048036038101906102109190613017565b61103d565b005b34801561022357600080fd5b5061022c6114c4565b6040516102399190613079565b60405180910390f35b34801561024e57600080fd5b506102576114ca565b6040516102649190613079565b60405180910390f35b34801561027957600080fd5b50610294600480360381019061028f9190613094565b6114d0565b005b3480156102a257600080fd5b506102ab61172e565b6040516102b89190613108565b60405180910390f35b3480156102cd57600080fd5b506102e860048036038101906102e39190612f88565b611754565b005b3480156102f657600080fd5b50610311600480360381019061030c9190613123565b611a99565b005b34801561031f57600080fd5b50610328611e10565b6040516103359190613184565b60405180910390f35b34801561034a57600080fd5b50610353611e36565b6040516103609190613079565b60405180910390f35b34801561037557600080fd5b5061037e611e3c565b60405161038b9190613079565b60405180910390f35b3480156103a057600080fd5b506103bb60048036038101906103b691906131cb565b611e42565b6040516103c89190613079565b60405180910390f35b6103eb60048036038101906103e69190612f88565b611e8b565b6040516103f89190612fd0565b60405180910390f35b34801561040d57600080fd5b5061041661208b565b6040516104239190613079565b60405180910390f35b34801561043857600080fd5b50610453600480360381019061044e9190612f88565b612091565b6040516104679897969594939291906132ff565b60405180910390f35b34801561047c57600080fd5b506104976004803603810190610492919061338b565b612223565b6040516104a996959493929190613413565b60405180910390f35b3480156104be57600080fd5b506104d960048036038101906104d49190612f88565b6122c9565b005b3480156104e757600080fd5b5061050260048036038101906104fd919061338b565b612579565b604051610510929190613474565b60405180910390f35b34801561052557600080fd5b5061052e6125e3565b005b34801561053c57600080fd5b50610557600480360381019061055291906135d2565b612812565b005b34801561056557600080fd5b50610580600480360381019061057b91906131cb565b612a62565b60405161058d9190613079565b60405180910390f35b3480156105a257600080fd5b506105ab612a7a565b6040516105b89190613108565b60405180910390f35b3480156105cd57600080fd5b506105e860048036038101906105e391906131cb565b612aa0565b6040516105f59190612fd0565b60405180910390f35b34801561060a57600080fd5b506106256004803603810190610620919061338b565b612ac0565b005b34801561063357600080fd5b5061063c612d8d565b604051610649919061366b565b60405180910390f35b600660009054906101000a900473ffffffffffffffffffffffffffffffffffffffff1681565b600042600c60008481526020019081526020016000206009015411156106d3576040517f08c379a00000000000000000000000000000000000000000000000000000000081526004016106ca906136d2565b60405180910390fd5b600060028111156106e7576106e6613288565b5b600c600084815260200190815260200160002060040160009054906101000a900460ff16600281111561071d5761071c613288565b5b1461075d576040517f08c379a000000000000000000000000000000000000000000000000000000000815260040161075490613764565b60405180910390fd5b6000806000805b601060008781526020019081526020016000208054905081101561080257600115156010600088815260200190815260200160002082815481106107ab576107aa613784565b5b9060005260206000200160000160149054906101000a900460ff161515036107e05783806107d8906137e2565b9450506107ef565b82806107eb906137e2565b9350505b80806107fa906137e2565b915050610764565b5060646046600a54610814919061382a565b61081e919061389b565b828461082a91906138cc565b101561086b576040517f08c379a00000000000000000000000000000000000000000000000000000000081526004016108629061394c565b60405180910390fd5b81831115610905576001600c600087815260200190815260200160002060040160006101000a81548160ff021916908360028111156108ad576108ac613288565b5b021790555082600c6000878152602001908152602001600020600a01819055506001600c600087815260200190815260200160002060080160006101000a81548160ff02191690831515021790555060019050610993565b6002600c600087815260200190815260200160002060040160006101000a81548160ff0219169083600281111561093f5761093e613288565b5b021790555081600c6000878152602001908152602001600020600a01819055506000600c600087815260200190815260200160002060080160006101000a81548160ff021916908315150217905550600090505b60005b6010600087815260200190815260200160002080549050811015610ba9578115156010600088815260200190815260200160002082815481106109dc576109db613784565b5b9060005260206000200160000160149054906101000a900460ff16151514610acc57600c6000878152602001908152602001600020600c01601060008881526020019081526020016000208281548110610a3957610a38613784565b5b9060005260206000200160000160009054906101000a900473ffffffffffffffffffffffffffffffffffffffff169080600181540180825580915050600190039060005260206000200160009091909190916101000a81548173ffffffffffffffffffffffffffffffffffffffff021916908373ffffffffffffffffffffffffffffffffffffffff160217905550610b96565b600c6000878152602001908152602001600020600b01601060008881526020019081526020016000208281548110610b0757610b06613784565b5b9060005260206000200160000160009054906101000a900473ffffffffffffffffffffffffffffffffffffffff169080600181540180825580915050600190039060005260206000200160009091909190916101000a81548173ffffffffffffffffffffffffffffffffffffffff021916908373ffffffffffffffffffffffffffffffffffffffff1602179055505b8080610ba1906137e2565b915050610996565b5060005b600c6000878152602001908152602001600020600c0180549050811015610ea457600a600f6000600c60008a8152602001908152602001600020600c018481548110610bfc57610bfb613784565b5b9060005260206000200160009054906101000a900473ffffffffffffffffffffffffffffffffffffffff1673ffffffffffffffffffffffffffffffffffffffff1673ffffffffffffffffffffffffffffffffffffffff16815260200190815260200160002054610c6c919061389b565b600f6000600c60008a8152602001908152602001600020600c018481548110610c9857610c97613784565b5b9060005260206000200160009054906101000a900473ffffffffffffffffffffffffffffffffffffffff1673ffffffffffffffffffffffffffffffffffffffff1673ffffffffffffffffffffffffffffffffffffffff1681526020019081526020016000206000828254610d0c919061396c565b92505081905550600660009054906101000a900473ffffffffffffffffffffffffffffffffffffffff1673ffffffffffffffffffffffffffffffffffffffff166379cc6790600c6000898152602001908152602001600020600c018381548110610d7957610d78613784565b5b9060005260206000200160009054906101000a900473ffffffffffffffffffffffffffffffffffffffff16600a600f6000600c60008d8152602001908152602001600020600c018781548110610dd257610dd1613784565b5b9060005260206000200160009054906101000a900473ffffffffffffffffffffffffffffffffffffffff1673ffffffffffffffffffffffffffffffffffffffff1673ffffffffffffffffffffffffffffffffffffffff16815260200190815260200160002054610e42919061389b565b6040518363ffffffff1660e01b8152600401610e5f9291906139a0565b600060405180830381600087803b158015610e7957600080fd5b505af1158015610e8d573d6000803e3d6000fd5b505050508080610e9c906137e2565b915050610bad565b5042600c600087815260200190815260200160002060090181905550801561103057600760009054906101000a900473ffffffffffffffffffffffffffffffffffffffff1673ffffffffffffffffffffffffffffffffffffffff1663d204c45e600c600088815260200190815260200160002060010160009054906101000a900473ffffffffffffffffffffffffffffffffffffffff16600c60008981526020019081526020016000206003016040518363ffffffff1660e01b8152600401610f6e929190613ac2565b600060405180830381600087803b158015610f8857600080fd5b505af1158015610f9c573d6000803e3d6000fd5b50505050600c600086815260200190815260200160002060010160009054906101000a900473ffffffffffffffffffffffffffffffffffffffff1673ffffffffffffffffffffffffffffffffffffffff167fbf2e6b97e061c41fa0eef5e69b4cf23bc9681baf5efea51b98fac4b048427eca8660405161101c9190613079565b60405180910390a260019350505050611038565b600093505050505b919050565b600d6000848152602001908152602001600020828154811061106257611061613784565b5b906000526020600020906005020160010160009054906101000a900473ffffffffffffffffffffffffffffffffffffffff1673ffffffffffffffffffffffffffffffffffffffff163373ffffffffffffffffffffffffffffffffffffffff1614611101576040517f08c379a00000000000000000000000000000000000000000000000000000000081526004016110f890613b3e565b60405180910390fd5b6001600381111561111557611114613288565b5b600d6000858152602001908152602001600020838154811061113a57611139613784565b5b906000526020600020906005020160030160009054906101000a900460ff16600381111561116b5761116a613288565b5b1461117557600080fd5b801561145f57600660009054906101000a900473ffffffffffffffffffffffffffffffffffffffff1673ffffffffffffffffffffffffffffffffffffffff166323b872dd33600d600087815260200190815260200160002085815481106111df576111de613784565b5b906000526020600020906005020160030160019054906101000a900473ffffffffffffffffffffffffffffffffffffffff166012600a61121f9190613c91565b600d6000898152602001908152602001600020878154811061124457611243613784565b5b906000526020600020906005020160020154611260919061382a565b6040518463ffffffff1660e01b815260040161127e93929190613cdc565b6020604051808303816000875af115801561129d573d6000803e3d6000fd5b505050506040513d601f19601f820116820180604052508101906112c19190613d28565b50600860009054906101000a900473ffffffffffffffffffffffffffffffffffffffff1673ffffffffffffffffffffffffffffffffffffffff1663156e29f6600d6000868152602001908152602001600020848154811061132557611324613784565b5b906000526020600020906005020160010160009054906101000a900473ffffffffffffffffffffffffffffffffffffffff168560016040518463ffffffff1660e01b815260040161137893929190613d90565b600060405180830381600087803b15801561139257600080fd5b505af11580156113a6573d6000803e3d6000fd5b505050503373ffffffffffffffffffffffffffffffffffffffff167f32860b88544cfbb4aa893f9c833dc3d17f33ddf8a4d910a5264a6014fbf32d538460016040516113f3929190613dc7565b60405180910390a26003600d6000858152602001908152602001600020838154811061142257611421613784565b5b906000526020600020906005020160030160006101000a81548160ff0219169083600381111561145557611454613288565b5b02179055506114bf565b6002600d6000858152602001908152602001600020838154811061148657611485613784565b5b906000526020600020906005020160030160006101000a81548160ff021916908360038111156114b9576114b8613288565b5b02179055505b505050565b60045481565b60095481565b600c600084815260200190815260200160002060010160009054906101000a900473ffffffffffffffffffffffffffffffffffffffff1673ffffffffffffffffffffffffffffffffffffffff163373ffffffffffffffffffffffffffffffffffffffff1614611574576040517f08c379a000000000000000000000000000000000000000000000000000000000815260040161156b90613e3c565b60405180910390fd5b81600d60008581526020019081526020016000208054905011801561159a575060008210155b6115d9576040517f08c379a00000000000000000000000000000000000000000000000000000000081526004016115d090613ea8565b60405180910390fd5b6000811180156115e95750606481105b611628576040517f08c379a000000000000000000000000000000000000000000000000000000000815260040161161f90613f14565b60405180910390fd5b6000600d6000858152602001908152602001600020838154811061164f5761164e613784565b5b90600052602060002090600502019050818160040181905550338160030160016101000a81548173ffffffffffffffffffffffffffffffffffffffff021916908373ffffffffffffffffffffffffffffffffffffffff16021790555060018160030160006101000a81548160ff021916908360038111156116d3576116d2613288565b5b02179055503373ffffffffffffffffffffffffffffffffffffffff167f15b49c7eaa14034f029963f4616614ccfa32c953f2b135913edb0fcaa74f11348584604051611720929190613f34565b60405180910390a250505050565b600260009054906101000a900473ffffffffffffffffffffffffffffffffffffffff1681565b6000600281111561176857611767613288565b5b600c600083815260200190815260200160002060040160009054906101000a900460ff16600281111561179e5761179d613288565b5b036117de576040517f08c379a00000000000000000000000000000000000000000000000000000000081526004016117d590613fcf565b60405180910390fd5b6000600c600083815260200190815260200160002060060160003373ffffffffffffffffffffffffffffffffffffffff1673ffffffffffffffffffffffffffffffffffffffff1681526020019081526020016000205403611874576040517f08c379a000000000000000000000000000000000000000000000000000000000815260040161186b9061403b565b60405180910390fd5b60001515600c600083815260200190815260200160002060070160003373ffffffffffffffffffffffffffffffffffffffff1673ffffffffffffffffffffffffffffffffffffffff16815260200190815260200160002060009054906101000a900460ff1615151461191b576040517f08c379a0000000000000000000000000000000000000000000000000000000008152600401611912906140a7565b60405180910390fd5b6000600c6000838152602001908152602001600020600b018054905090506000816012600a61194a9190613c91565b600354611957919061382a565b611961919061389b565b9050600660009054906101000a900473ffffffffffffffffffffffffffffffffffffffff1673ffffffffffffffffffffffffffffffffffffffff166323b872dd600160009054906101000a900473ffffffffffffffffffffffffffffffffffffffff1633846040518463ffffffff1660e01b81526004016119e493929190613cdc565b6020604051808303816000875af1158015611a03573d6000803e3d6000fd5b505050506040513d601f19601f82011682018060405250810190611a279190613d28565b506001600c600085815260200190815260200160002060070160003373ffffffffffffffffffffffffffffffffffffffff1673ffffffffffffffffffffffffffffffffffffffff16815260200190815260200160002060006101000a81548160ff021916908315150217905550505050565b60011515600e60003373ffffffffffffffffffffffffffffffffffffffff1673ffffffffffffffffffffffffffffffffffffffff16815260200190815260200160002060009054906101000a900460ff16151514611b2c576040517f08c379a0000000000000000000000000000000000000000000000000000000008152600401611b2390614113565b60405180910390fd5b6000600c600084815260200190815260200160002060060160003373ffffffffffffffffffffffffffffffffffffffff1673ffffffffffffffffffffffffffffffffffffffff1681526020019081526020016000205414611bc2576040517f08c379a0000000000000000000000000000000000000000000000000000000008152600401611bb99061417f565b60405180910390fd5b6000600c6000848152602001908152602001600020905060006002811115611bed57611bec613288565b5b8160040160009054906101000a900460ff166002811115611c1157611c10613288565b5b14611c51576040517f08c379a0000000000000000000000000000000000000000000000000000000008152600401611c48906141eb565b60405180910390fd5b42816009015410611c97576040517f08c379a0000000000000000000000000000000000000000000000000000000008152600401611c8e90614257565b60405180910390fd5b6001151582151503611cef5760018160060160003373ffffffffffffffffffffffffffffffffffffffff1673ffffffffffffffffffffffffffffffffffffffff16815260200190815260200160002081905550611d37565b60028160060160003373ffffffffffffffffffffffffffffffffffffffff1673ffffffffffffffffffffffffffffffffffffffff168152602001908152602001600020819055505b600060405180604001604052803373ffffffffffffffffffffffffffffffffffffffff168152602001841515815250905060106000858152602001908152602001600020819080600181540180825580915050600190039060005260206000200160009091909190915060008201518160000160006101000a81548173ffffffffffffffffffffffffffffffffffffffff021916908373ffffffffffffffffffffffffffffffffffffffff16021790555060208201518160000160146101000a81548160ff021916908315150217905550505050505050565b600760009054906101000a900473ffffffffffffffffffffffffffffffffffffffff1681565b60035481565b600a5481565b6000600f60008373ffffffffffffffffffffffffffffffffffffffff1673ffffffffffffffffffffffffffffffffffffffff168152602001908152602001600020549050919050565b6000611e95612db3565b60008211611ed8576040517f08c379a0000000000000000000000000000000000000000000000000000000008152600401611ecf906142e9565b60405180910390fd5b60095482611ee6919061382a565b341015611f28576040517f08c379a0000000000000000000000000000000000000000000000000000000008152600401611f1f90614355565b60405180910390fd5b600660009054906101000a900473ffffffffffffffffffffffffffffffffffffffff1673ffffffffffffffffffffffffffffffffffffffff166323b872dd600160009054906101000a900473ffffffffffffffffffffffffffffffffffffffff16336012600a611f989190613c91565b86611fa3919061382a565b6040518463ffffffff1660e01b8152600401611fc193929190613cdc565b6020604051808303816000875af1158015611fe0573d6000803e3d6000fd5b505050506040513d601f19601f820116820180604052508101906120049190613d28565b50600060095483612015919061382a565b34612020919061396c565b905060008111156120795760003390508073ffffffffffffffffffffffffffffffffffffffff166108fc839081150290604051600060405180830381858888f19350505050158015612076573d6000803e3d6000fd5b50505b6001915050612086612e02565b919050565b60055481565b600c6020528060005260406000206000915090508060000154908060010160009054906101000a900473ffffffffffffffffffffffffffffffffffffffff16908060020180546120e0906139f8565b80601f016020809104026020016040519081016040528092919081815260200182805461210c906139f8565b80156121595780601f1061212e57610100808354040283529160200191612159565b820191906000526020600020905b81548152906001019060200180831161213c57829003601f168201915b50505050509080600301805461216e906139f8565b80601f016020809104026020016040519081016040528092919081815260200182805461219a906139f8565b80156121e75780601f106121bc576101008083540402835291602001916121e7565b820191906000526020600020905b8154815290600101906020018083116121ca57829003601f168201915b5050505050908060040160009054906101000a900460ff16908060080160009054906101000a900460ff169080600901549080600a0154905088565b600d602052816000526040600020818154811061223f57600080fd5b9060005260206000209060050201600091509150508060000154908060010160009054906101000a900473ffffffffffffffffffffffffffffffffffffffff16908060020154908060030160009054906101000a900460ff16908060030160019054906101000a900473ffffffffffffffffffffffffffffffffffffffff16908060040154905086565b60001515600e60003373ffffffffffffffffffffffffffffffffffffffff1673ffffffffffffffffffffffffffffffffffffffff16815260200190815260200160002060009054906101000a900460ff1615151461235c576040517f08c379a0000000000000000000000000000000000000000000000000000000008152600401612353906143c1565b60405180910390fd5b6004548110156123a1576040517f08c379a00000000000000000000000000000000000000000000000000000000081526004016123989061442d565b60405180910390fd5b600660009054906101000a900473ffffffffffffffffffffffffffffffffffffffff1673ffffffffffffffffffffffffffffffffffffffff166323b872dd33600160009054906101000a900473ffffffffffffffffffffffffffffffffffffffff166012600a6124119190613c91565b8561241c919061382a565b6040518463ffffffff1660e01b815260040161243a93929190613cdc565b6020604051808303816000875af1158015612459573d6000803e3d6000fd5b505050506040513d601f19601f8201168201806040525081019061247d9190613d28565b506012600a61248c9190613c91565b81612497919061382a565b6005546124a491906138cc565b6005819055506012600a6124b89190613c91565b816124c3919061382a565b600f60003373ffffffffffffffffffffffffffffffffffffffff1673ffffffffffffffffffffffffffffffffffffffff168152602001908152602001600020819055506001600e60003373ffffffffffffffffffffffffffffffffffffffff1673ffffffffffffffffffffffffffffffffffffffff16815260200190815260200160002060006101000a81548160ff021916908315150217905550600a6000815480929190612571906137e2565b919050555050565b6010602052816000526040600020818154811061259557600080fd5b90600052602060002001600091509150508060000160009054906101000a900473ffffffffffffffffffffffffffffffffffffffff16908060000160149054906101000a900460ff16905082565b600e60003373ffffffffffffffffffffffffffffffffffffffff1673ffffffffffffffffffffffffffffffffffffffff16815260200190815260200160002060009054906101000a900460ff1661266f576040517f08c379a000000000000000000000000000000000000000000000000000000000815260040161266690614113565b60405180910390fd5b600660009054906101000a900473ffffffffffffffffffffffffffffffffffffffff1673ffffffffffffffffffffffffffffffffffffffff166323b872dd600160009054906101000a900473ffffffffffffffffffffffffffffffffffffffff1633600f60003373ffffffffffffffffffffffffffffffffffffffff1673ffffffffffffffffffffffffffffffffffffffff168152602001908152602001600020546040518463ffffffff1660e01b815260040161272f93929190613cdc565b6020604051808303816000875af115801561274e573d6000803e3d6000fd5b505050506040513d601f19601f820116820180604052508101906127729190613d28565b506000600f60003373ffffffffffffffffffffffffffffffffffffffff1673ffffffffffffffffffffffffffffffffffffffff168152602001908152602001600020819055506000600e60003373ffffffffffffffffffffffffffffffffffffffff1673ffffffffffffffffffffffffffffffffffffffff16815260200190815260200160002060006101000a81548160ff021916908315150217905550565b61281a612db3565b600660009054906101000a900473ffffffffffffffffffffffffffffffffffffffff1673ffffffffffffffffffffffffffffffffffffffff166323b872dd33600160009054906101000a900473ffffffffffffffffffffffffffffffffffffffff166012600a61288a9190613c91565b600354612897919061382a565b6040518463ffffffff1660e01b81526004016128b593929190613cdc565b6020604051808303816000875af11580156128d4573d6000803e3d6000fd5b505050506040513d601f19601f820116820180604052508101906128f89190613d28565b50612903600b612e0c565b6000600c6000612913600b612e22565b8152602001908152602001600020905061292d600b612e22565b8160000181905550338160010160006101000a81548173ffffffffffffffffffffffffffffffffffffffff021916908373ffffffffffffffffffffffffffffffffffffffff1602179055508181600201908161298991906145da565b508281600301908161299b91906145da565b5060008160040160006101000a81548160ff021916908360028111156129c4576129c3613288565b5b021790555060008160080160006101000a81548160ff02191690831515021790555060008160090181905550600081600a01819055503373ffffffffffffffffffffffffffffffffffffffff167f21db811397880d6ec73e47c51b9bda166cd7e8d3201ae52938a8600dde3e3a198385612a3e600b612e22565b604051612a4d939291906146ac565b60405180910390a250612a5e612e02565b5050565b600f6020528060005260406000206000915090505481565b600160009054906101000a900473ffffffffffffffffffffffffffffffffffffffff1681565b600e6020528060005260406000206000915054906101000a900460ff1681565b60016002811115612ad457612ad3613288565b5b600c600084815260200190815260200160002060040160009054906101000a900460ff166002811115612b0a57612b09613288565b5b14612b4a576040517f08c379a0000000000000000000000000000000000000000000000000000000008152600401612b419061473d565b60405180910390fd5b60008111612b8d576040517f08c379a0000000000000000000000000000000000000000000000000000000008152600401612b84906147a9565b60405180910390fd5b612b95612e30565b8281600001818152505033816020019073ffffffffffffffffffffffffffffffffffffffff16908173ffffffffffffffffffffffffffffffffffffffff16815250508181604001818152505060008160a0018181525050600081606001906003811115612c0557612c04613288565b5b90816003811115612c1957612c18613288565b5b81525050600d60008481526020019081526020016000208190806001815401808255809150506001900390600052602060002090600502016000909190919091506000820151816000015560208201518160010160006101000a81548173ffffffffffffffffffffffffffffffffffffffff021916908373ffffffffffffffffffffffffffffffffffffffff1602179055506040820151816002015560608201518160030160006101000a81548160ff02191690836003811115612ce057612cdf613288565b5b021790555060808201518160030160016101000a81548173ffffffffffffffffffffffffffffffffffffffff021916908373ffffffffffffffffffffffffffffffffffffffff16021790555060a0820151816004015550503373ffffffffffffffffffffffffffffffffffffffff167fc6b4a6c7a76410797753f3d24f37e0132689790a958a7c7e7cb257d29fa8b2a88484604051612d80929190613f34565b60405180910390a2505050565b600860009054906101000a900473ffffffffffffffffffffffffffffffffffffffff1681565b600260005403612df8576040517f08c379a0000000000000000000000000000000000000000000000000000000008152600401612def90614815565b60405180910390fd5b6002600081905550565b6001600081905550565b6001816000016000828254019250508190555050565b600081600001549050919050565b6040518060c0016040528060008152602001600073ffffffffffffffffffffffffffffffffffffffff1681526020016000815260200160006003811115612e7a57612e79613288565b5b8152602001600073ffffffffffffffffffffffffffffffffffffffff168152602001600081525090565b600073ffffffffffffffffffffffffffffffffffffffff82169050919050565b6000819050919050565b6000612ee9612ee4612edf84612ea4565b612ec4565b612ea4565b9050919050565b6000612efb82612ece565b9050919050565b6000612f0d82612ef0565b9050919050565b612f1d81612f02565b82525050565b6000602082019050612f386000830184612f14565b92915050565b6000604051905090565b600080fd5b600080fd5b6000819050919050565b612f6581612f52565b8114612f7057600080fd5b50565b600081359050612f8281612f5c565b92915050565b600060208284031215612f9e57612f9d612f48565b5b6000612fac84828501612f73565b91505092915050565b60008115159050919050565b612fca81612fb5565b82525050565b6000602082019050612fe56000830184612fc1565b92915050565b612ff481612fb5565b8114612fff57600080fd5b50565b60008135905061301181612feb565b92915050565b6000806000606084860312156130305761302f612f48565b5b600061303e86828701612f73565b935050602061304f86828701612f73565b925050604061306086828701613002565b9150509250925092565b61307381612f52565b82525050565b600060208201905061308e600083018461306a565b92915050565b6000806000606084860312156130ad576130ac612f48565b5b60006130bb86828701612f73565b93505060206130cc86828701612f73565b92505060406130dd86828701612f73565b9150509250925092565b60006130f282612ea4565b9050919050565b613102816130e7565b82525050565b600060208201905061311d60008301846130f9565b92915050565b6000806040838503121561313a57613139612f48565b5b600061314885828601612f73565b925050602061315985828601613002565b9150509250929050565b600061316e82612ef0565b9050919050565b61317e81613163565b82525050565b60006020820190506131996000830184613175565b92915050565b6131a8816130e7565b81146131b357600080fd5b50565b6000813590506131c58161319f565b92915050565b6000602082840312156131e1576131e0612f48565b5b60006131ef848285016131b6565b91505092915050565b600081519050919050565b600082825260208201905092915050565b60005b83811015613232578082015181840152602081019050613217565b60008484015250505050565b6000601f19601f8301169050919050565b600061325a826131f8565b6132648185613203565b9350613274818560208601613214565b61327d8161323e565b840191505092915050565b7f4e487b7100000000000000000000000000000000000000000000000000000000600052602160045260246000fd5b600381106132c8576132c7613288565b5b50565b60008190506132d9826132b7565b919050565b60006132e9826132cb565b9050919050565b6132f9816132de565b82525050565b600061010082019050613315600083018b61306a565b613322602083018a6130f9565b8181036040830152613334818961324f565b90508181036060830152613348818861324f565b905061335760808301876132f0565b61336460a0830186612fc1565b61337160c083018561306a565b61337e60e083018461306a565b9998505050505050505050565b600080604083850312156133a2576133a1612f48565b5b60006133b085828601612f73565b92505060206133c185828601612f73565b9150509250929050565b600481106133dc576133db613288565b5b50565b60008190506133ed826133cb565b919050565b60006133fd826133df565b9050919050565b61340d816133f2565b82525050565b600060c082019050613428600083018961306a565b61343560208301886130f9565b613442604083018761306a565b61344f6060830186613404565b61345c60808301856130f9565b61346960a083018461306a565b979650505050505050565b600060408201905061348960008301856130f9565b6134966020830184612fc1565b9392505050565b600080fd5b600080fd5b7f4e487b7100000000000000000000000000000000000000000000000000000000600052604160045260246000fd5b6134df8261323e565b810181811067ffffffffffffffff821117156134fe576134fd6134a7565b5b80604052505050565b6000613511612f3e565b905061351d82826134d6565b919050565b600067ffffffffffffffff82111561353d5761353c6134a7565b5b6135468261323e565b9050602081019050919050565b82818337600083830152505050565b600061357561357084613522565b613507565b905082815260208101848484011115613591576135906134a2565b5b61359c848285613553565b509392505050565b600082601f8301126135b9576135b861349d565b5b81356135c9848260208601613562565b91505092915050565b600080604083850312156135e9576135e8612f48565b5b600083013567ffffffffffffffff81111561360757613606612f4d565b5b613613858286016135a4565b925050602083013567ffffffffffffffff81111561363457613633612f4d565b5b613640858286016135a4565b9150509250929050565b600061365582612ef0565b9050919050565b6136658161364a565b82525050565b6000602082019050613680600083018461365c565b92915050565b7f766f74696e672066696e69736865640000000000000000000000000000000000600082015250565b60006136bc600f83613203565b91506136c782613686565b602082019050919050565b600060208201905081810360008301526136eb816136af565b9050919050565b7f7265717565737420617070726f7665642f72656a656374656420616c7265616460008201527f7900000000000000000000000000000000000000000000000000000000000000602082015250565b600061374e602183613203565b9150613759826136f2565b604082019050919050565b6000602082019050818103600083015261377d81613741565b9050919050565b7f4e487b7100000000000000000000000000000000000000000000000000000000600052603260045260246000fd5b7f4e487b7100000000000000000000000000000000000000000000000000000000600052601160045260246000fd5b60006137ed82612f52565b91507fffffffffffffffffffffffffffffffffffffffffffffffffffffffffffffffff820361381f5761381e6137b3565b5b600182019050919050565b600061383582612f52565b915061384083612f52565b925082820261384e81612f52565b91508282048414831517613865576138646137b3565b5b5092915050565b7f4e487b7100000000000000000000000000000000000000000000000000000000600052601260045260246000fd5b60006138a682612f52565b91506138b183612f52565b9250826138c1576138c061386c565b5b828204905092915050565b60006138d782612f52565b91506138e283612f52565b92508282019050808211156138fa576138f96137b3565b5b92915050565b7f4e4f5420656e6f75676820766f7465732068617070656e656400000000000000600082015250565b6000613936601983613203565b915061394182613900565b602082019050919050565b6000602082019050818103600083015261396581613929565b9050919050565b600061397782612f52565b915061398283612f52565b925082820390508181111561399a576139996137b3565b5b92915050565b60006040820190506139b560008301856130f9565b6139c2602083018461306a565b9392505050565b7f4e487b7100000000000000000000000000000000000000000000000000000000600052602260045260246000fd5b60006002820490506001821680613a1057607f821691505b602082108103613a2357613a226139c9565b5b50919050565b60008190508160005260206000209050919050565b60008154613a4b816139f8565b613a558186613203565b94506001821660008114613a705760018114613a8657613ab9565b60ff198316865281151560200286019350613ab9565b613a8f85613a29565b60005b83811015613ab157815481890152600182019150602081019050613a92565b808801955050505b50505092915050565b6000604082019050613ad760008301856130f9565b8181036020830152613ae98184613a3e565b90509392505050565b7f796f7520617265206e6f7420746865206f776e6572206f662072657175657374600082015250565b6000613b28602083613203565b9150613b3382613af2565b602082019050919050565b60006020820190508181036000830152613b5781613b1b565b9050919050565b60008160011c9050919050565b6000808291508390505b6001851115613bb557808604811115613b9157613b906137b3565b5b6001851615613ba05780820291505b8081029050613bae85613b5e565b9450613b75565b94509492505050565b600082613bce5760019050613c8a565b81613bdc5760009050613c8a565b8160018114613bf25760028114613bfc57613c2b565b6001915050613c8a565b60ff841115613c0e57613c0d6137b3565b5b8360020a915084821115613c2557613c246137b3565b5b50613c8a565b5060208310610133831016604e8410600b8410161715613c605782820a905083811115613c5b57613c5a6137b3565b5b613c8a565b613c6d8484846001613b6b565b92509050818404811115613c8457613c836137b3565b5b81810290505b9392505050565b6000613c9c82612f52565b9150613ca783612f52565b9250613cd47fffffffffffffffffffffffffffffffffffffffffffffffffffffffffffffffff8484613bbe565b905092915050565b6000606082019050613cf160008301866130f9565b613cfe60208301856130f9565b613d0b604083018461306a565b949350505050565b600081519050613d2281612feb565b92915050565b600060208284031215613d3e57613d3d612f48565b5b6000613d4c84828501613d13565b91505092915050565b6000819050919050565b6000613d7a613d75613d7084613d55565b612ec4565b612f52565b9050919050565b613d8a81613d5f565b82525050565b6000606082019050613da560008301866130f9565b613db2602083018561306a565b613dbf6040830184613d81565b949350505050565b6000604082019050613ddc600083018561306a565b613de96020830184613d81565b9392505050565b7f4f6e6c79206f776e6572206f66204e46542063616e2063616c6c207468697300600082015250565b6000613e26601f83613203565b9150613e3182613df0565b602082019050919050565b60006020820190508181036000830152613e5581613e19565b9050919050565b7f4e6f7420612076616c6964206275794964000000000000000000000000000000600082015250565b6000613e92601183613203565b9150613e9d82613e5c565b602082019050919050565b60006020820190508181036000830152613ec181613e85565b9050919050565b7f496e76616c69642070657263656e74616765206f666665726564000000000000600082015250565b6000613efe601a83613203565b9150613f0982613ec8565b602082019050919050565b60006020820190508181036000830152613f2d81613ef1565b9050919050565b6000604082019050613f49600083018561306a565b613f56602083018461306a565b9392505050565b7f72657175657374207374696c6c2076616974696e6720666f7220617070726f7660008201527f616c000000000000000000000000000000000000000000000000000000000000602082015250565b6000613fb9602283613203565b9150613fc482613f5d565b604082019050919050565b60006020820190508181036000830152613fe881613fac565b9050919050565b7f796f75206e6f7420766f74656400000000000000000000000000000000000000600082015250565b6000614025600d83613203565b915061403082613fef565b602082019050919050565b6000602082019050818103600083015261405481614018565b9050919050565b7f616c726561647920636c61696d65640000000000000000000000000000000000600082015250565b6000614091600f83613203565b915061409c8261405b565b602082019050919050565b600060208201905081810360008301526140c081614084565b9050919050565b7f796f7520617265206e6f74206120766f74657200000000000000000000000000600082015250565b60006140fd601383613203565b9150614108826140c7565b602082019050919050565b6000602082019050818103600083015261412c816140f0565b9050919050565b7f796f7520616c726561647920766f746564000000000000000000000000000000600082015250565b6000614169601183613203565b915061417482614133565b602082019050919050565b600060208201905081810360008301526141988161415c565b9050919050565b7f6361736520617070726f7665642f72656a656374656420616c72656164790000600082015250565b60006141d5601e83613203565b91506141e08261419f565b602082019050919050565b60006020820190508181036000830152614204816141c8565b9050919050565b7f6361736520657870697265640000000000000000000000000000000000000000600082015250565b6000614241600c83613203565b915061424c8261420b565b602082019050919050565b6000602082019050818103600083015261427081614234565b9050919050565b7f726571756972656420616d6f756e742073686f756c6420626520706f7369746960008201527f7665000000000000000000000000000000000000000000000000000000000000602082015250565b60006142d3602283613203565b91506142de82614277565b604082019050919050565b60006020820190508181036000830152614302816142c6565b9050919050565b7f6e6f74206861766520656e6f7567682062616c616e6365000000000000000000600082015250565b600061433f601783613203565b915061434a82614309565b602082019050919050565b6000602082019050818103600083015261436e81614332565b9050919050565b7f616c7265616479206120766f7465720000000000000000000000000000000000600082015250565b60006143ab600f83613203565b91506143b682614375565b602082019050919050565b600060208201905081810360008301526143da8161439e565b9050919050565b7f7374616b696e6720616d74206973206e6f7420656e6f75676800000000000000600082015250565b6000614417601983613203565b9150614422826143e1565b602082019050919050565b600060208201905081810360008301526144468161440a565b9050919050565b60006020601f8301049050919050565b600082821b905092915050565b60006008830261449a7fffffffffffffffffffffffffffffffffffffffffffffffffffffffffffffffff8261445d565b6144a4868361445d565b95508019841693508086168417925050509392505050565b60006144d76144d26144cd84612f52565b612ec4565b612f52565b9050919050565b6000819050919050565b6144f1836144bc565b6145056144fd826144de565b84845461446a565b825550505050565b600090565b61451a61450d565b6145258184846144e8565b505050565b5b818110156145495761453e600082614512565b60018101905061452b565b5050565b601f82111561458e5761455f81613a29565b6145688461444d565b81016020851015614577578190505b61458b6145838561444d565b83018261452a565b50505b505050565b600082821c905092915050565b60006145b160001984600802614593565b1980831691505092915050565b60006145ca83836145a0565b9150826002028217905092915050565b6145e3826131f8565b67ffffffffffffffff8111156145fc576145fb6134a7565b5b61460682546139f8565b61461182828561454d565b600060209050601f8311600181146146445760008415614632578287015190505b61463c85826145be565b8655506146a4565b601f19841661465286613a29565b60005b8281101561467a57848901518255600182019150602085019450602081019050614655565b868310156146975784890151614693601f8916826145a0565b8355505b6001600288020188555050505b505050505050565b600060608201905081810360008301526146c6818661324f565b905081810360208301526146da818561324f565b90506146e9604083018461306a565b949350505050565b7f72657175657374206e6f7420617070726f7665642f72656a6563746564000000600082015250565b6000614727601d83613203565b9150614732826146f1565b602082019050919050565b600060208201905081810360008301526147568161471a565b9050919050565b7f416d6f756e742063616e6e6f74206265206e6567617469766500000000000000600082015250565b6000614793601983613203565b915061479e8261475d565b602082019050919050565b600060208201905081810360008301526147c281614786565b9050919050565b7f5265656e7472616e637947756172643a207265656e7472616e742063616c6c00600082015250565b60006147ff601f83613203565b915061480a826147c9565b602082019050919050565b6000602082019050818103600083015261482e816147f2565b905091905056fea26469706673582212203769bae69f6fcb89ead2e7b81f2018ee5d8da5b92711698519202242a4818a1564736f6c63430008120033",
  "linkReferences": {},
  "deployedLinkReferences": {}
}