{
  "_format": "hh-sol-artifact-1",
  "contractName": "BMToken1155",
  "sourceName": "contracts/BMToken1155.sol",
  "abi": [
    {
      "inputs": [],
      "stateMutability": "nonpayable",
      "type": "constructor"
    },
    {
      "anonymous": false,
      "inputs": [
        {
          "indexed": true,
          "internalType": "address",
          "name": "account",
          "type": "address"
        },
        {
          "indexed": true,
          "internalType": "address",
          "name": "operator",
          "type": "address"
        },
        {
          "indexed": false,
          "internalType": "bool",
          "name": "approved",
          "type": "bool"
        }
      ],
      "name": "ApprovalForAll",
      "type": "event"
    },
    {
      "anonymous": false,
      "inputs": [
        {
          "indexed": true,
          "internalType": "address",
          "name": "previousOwner",
          "type": "address"
        },
        {
          "indexed": true,
          "internalType": "address",
          "name": "newOwner",
          "type": "address"
        }
      ],
      "name": "OwnershipTransferred",
      "type": "event"
    },
    {
      "anonymous": false,
      "inputs": [
        {
          "indexed": true,
          "internalType": "address",
          "name": "operator",
          "type": "address"
        },
        {
          "indexed": true,
          "internalType": "address",
          "name": "from",
          "type": "address"
        },
        {
          "indexed": true,
          "internalType": "address",
          "name": "to",
          "type": "address"
        },
        {
          "indexed": false,
          "internalType": "uint256[]",
          "name": "ids",
          "type": "uint256[]"
        },
        {
          "indexed": false,
          "internalType": "uint256[]",
          "name": "values",
          "type": "uint256[]"
        }
      ],
      "name": "TransferBatch",
      "type": "event"
    },
    {
      "anonymous": false,
      "inputs": [
        {
          "indexed": true,
          "internalType": "address",
          "name": "operator",
          "type": "address"
        },
        {
          "indexed": true,
          "internalType": "address",
          "name": "from",
          "type": "address"
        },
        {
          "indexed": true,
          "internalType": "address",
          "name": "to",
          "type": "address"
        },
        {
          "indexed": false,
          "internalType": "uint256",
          "name": "id",
          "type": "uint256"
        },
        {
          "indexed": false,
          "internalType": "uint256",
          "name": "value",
          "type": "uint256"
        }
      ],
      "name": "TransferSingle",
      "type": "event"
    },
    {
      "anonymous": false,
      "inputs": [
        {
          "indexed": false,
          "internalType": "string",
          "name": "value",
          "type": "string"
        },
        {
          "indexed": true,
          "internalType": "uint256",
          "name": "id",
          "type": "uint256"
        }
      ],
      "name": "URI",
      "type": "event"
    },
    {
      "inputs": [
        {
          "internalType": "address",
          "name": "account",
          "type": "address"
        },
        {
          "internalType": "uint256",
          "name": "id",
          "type": "uint256"
        }
      ],
      "name": "balanceOf",
      "outputs": [
        {
          "internalType": "uint256",
          "name": "",
          "type": "uint256"
        }
      ],
      "stateMutability": "view",
      "type": "function"
    },
    {
      "inputs": [
        {
          "internalType": "address[]",
          "name": "accounts",
          "type": "address[]"
        },
        {
          "internalType": "uint256[]",
          "name": "ids",
          "type": "uint256[]"
        }
      ],
      "name": "balanceOfBatch",
      "outputs": [
        {
          "internalType": "uint256[]",
          "name": "",
          "type": "uint256[]"
        }
      ],
      "stateMutability": "view",
      "type": "function"
    },
    {
      "inputs": [
        {
          "internalType": "address",
          "name": "account",
          "type": "address"
        },
        {
          "internalType": "address",
          "name": "operator",
          "type": "address"
        }
      ],
      "name": "isApprovedForAll",
      "outputs": [
        {
          "internalType": "bool",
          "name": "",
          "type": "bool"
        }
      ],
      "stateMutability": "view",
      "type": "function"
    },
    {
      "inputs": [
        {
          "internalType": "address",
          "name": "to",
          "type": "address"
        },
        {
          "internalType": "uint256",
          "name": "id",
          "type": "uint256"
        },
        {
          "internalType": "uint256",
          "name": "amount",
          "type": "uint256"
        }
      ],
      "name": "mint",
      "outputs": [],
      "stateMutability": "nonpayable",
      "type": "function"
    },
    {
      "inputs": [],
      "name": "owner",
      "outputs": [
        {
          "internalType": "address",
          "name": "",
          "type": "address"
        }
      ],
      "stateMutability": "view",
      "type": "function"
    },
    {
      "inputs": [],
      "name": "renounceOwnership",
      "outputs": [],
      "stateMutability": "nonpayable",
      "type": "function"
    },
    {
      "inputs": [
        {
          "internalType": "address",
          "name": "from",
          "type": "address"
        },
        {
          "internalType": "address",
          "name": "to",
          "type": "address"
        },
        {
          "internalType": "uint256[]",
          "name": "ids",
          "type": "uint256[]"
        },
        {
          "internalType": "uint256[]",
          "name": "amounts",
          "type": "uint256[]"
        },
        {
          "internalType": "bytes",
          "name": "data",
          "type": "bytes"
        }
      ],
      "name": "safeBatchTransferFrom",
      "outputs": [],
      "stateMutability": "nonpayable",
      "type": "function"
    },
    {
      "inputs": [
        {
          "internalType": "address",
          "name": "from",
          "type": "address"
        },
        {
          "internalType": "address",
          "name": "to",
          "type": "address"
        },
        {
          "internalType": "uint256",
          "name": "id",
          "type": "uint256"
        },
        {
          "internalType": "uint256",
          "name": "amount",
          "type": "uint256"
        },
        {
          "internalType": "bytes",
          "name": "data",
          "type": "bytes"
        }
      ],
      "name": "safeTransferFrom",
      "outputs": [],
      "stateMutability": "nonpayable",
      "type": "function"
    },
    {
      "inputs": [
        {
          "internalType": "address",
          "name": "operator",
          "type": "address"
        },
        {
          "internalType": "bool",
          "name": "approved",
          "type": "bool"
        }
      ],
      "name": "setApprovalForAll",
      "outputs": [],
      "stateMutability": "nonpayable",
      "type": "function"
    },
    {
      "inputs": [
        {
          "internalType": "bytes4",
          "name": "interfaceId",
          "type": "bytes4"
        }
      ],
      "name": "supportsInterface",
      "outputs": [
        {
          "internalType": "bool",
          "name": "",
          "type": "bool"
        }
      ],
      "stateMutability": "view",
      "type": "function"
    },
    {
      "inputs": [
        {
          "internalType": "address",
          "name": "newOwner",
          "type": "address"
        }
      ],
      "name": "transferOwnership",
      "outputs": [],
      "stateMutability": "nonpayable",
      "type": "function"
    },
    {
      "inputs": [
        {
          "internalType": "uint256",
          "name": "",
          "type": "uint256"
        }
      ],
      "name": "uri",
      "outputs": [
        {
          "internalType": "string",
          "name": "",
          "type": "string"
        }
      ],
      "stateMutability": "view",
      "type": "function"
    }
  ],
  "bytecode": "0x60806040523480156200001157600080fd5b5060405180608001604052806059815260200162003114605991396200003d816200006460201b60201c565b506200005e620000526200007960201b60201c565b6200008160201b60201c565b620004a8565b8060029081620000759190620003c1565b5050565b600033905090565b6000600360009054906101000a900473ffffffffffffffffffffffffffffffffffffffff16905081600360006101000a81548173ffffffffffffffffffffffffffffffffffffffff021916908373ffffffffffffffffffffffffffffffffffffffff1602179055508173ffffffffffffffffffffffffffffffffffffffff168173ffffffffffffffffffffffffffffffffffffffff167f8be0079c531659141344cd1fd0a4f28419497f9722a3daafe3b4186f6b6457e060405160405180910390a35050565b600081519050919050565b7f4e487b7100000000000000000000000000000000000000000000000000000000600052604160045260246000fd5b7f4e487b7100000000000000000000000000000000000000000000000000000000600052602260045260246000fd5b60006002820490506001821680620001c957607f821691505b602082108103620001df57620001de62000181565b5b50919050565b60008190508160005260206000209050919050565b60006020601f8301049050919050565b600082821b905092915050565b600060088302620002497fffffffffffffffffffffffffffffffffffffffffffffffffffffffffffffffff826200020a565b6200025586836200020a565b95508019841693508086168417925050509392505050565b6000819050919050565b6000819050919050565b6000620002a26200029c62000296846200026d565b62000277565b6200026d565b9050919050565b6000819050919050565b620002be8362000281565b620002d6620002cd82620002a9565b84845462000217565b825550505050565b600090565b620002ed620002de565b620002fa818484620002b3565b505050565b5b81811015620003225762000316600082620002e3565b60018101905062000300565b5050565b601f82111562000371576200033b81620001e5565b6200034684620001fa565b8101602085101562000356578190505b6200036e6200036585620001fa565b830182620002ff565b50505b505050565b600082821c905092915050565b6000620003966000198460080262000376565b1980831691505092915050565b6000620003b1838362000383565b9150826002028217905092915050565b620003cc8262000147565b67ffffffffffffffff811115620003e857620003e762000152565b5b620003f48254620001b0565b6200040182828562000326565b600060209050601f83116001811462000439576000841562000424578287015190505b620004308582620003a3565b865550620004a0565b601f1984166200044986620001e5565b60005b8281101562000473578489015182556001820191506020850194506020810190506200044c565b868310156200049357848901516200048f601f89168262000383565b8355505b6001600288020188555050505b505050505050565b612c5c80620004b86000396000f3fe608060405234801561001057600080fd5b50600436106100b35760003560e01c8063715018a611610071578063715018a6146101b05780638da5cb5b146101ba578063a22cb465146101d8578063e985e9c5146101f4578063f242432a14610224578063f2fde38b14610240576100b3565b8062fdd58e146100b857806301ffc9a7146100e85780630e89341c14610118578063156e29f6146101485780632eb2c2d6146101645780634e1273f414610180575b600080fd5b6100d260048036038101906100cd919061187e565b61025c565b6040516100df91906118cd565b60405180910390f35b61010260048036038101906100fd9190611940565b610324565b60405161010f9190611988565b60405180910390f35b610132600480360381019061012d91906119a3565b610406565b60405161013f9190611a60565b60405180910390f35b610162600480360381019061015d9190611a82565b61049a565b005b61017e60048036038101906101799190611cd2565b610527565b005b61019a60048036038101906101959190611e64565b6105c8565b6040516101a79190611f9a565b60405180910390f35b6101b86106e1565b005b6101c26106f5565b6040516101cf9190611fcb565b60405180910390f35b6101f260048036038101906101ed9190612012565b61071f565b005b61020e60048036038101906102099190612052565b610735565b60405161021b9190611988565b60405180910390f35b61023e60048036038101906102399190612092565b6107c9565b005b61025a60048036038101906102559190612129565b61086a565b005b60008073ffffffffffffffffffffffffffffffffffffffff168373ffffffffffffffffffffffffffffffffffffffff16036102cc576040517f08c379a00000000000000000000000000000000000000000000000000000000081526004016102c3906121c8565b60405180910390fd5b60008083815260200190815260200160002060008473ffffffffffffffffffffffffffffffffffffffff1673ffffffffffffffffffffffffffffffffffffffff16815260200190815260200160002054905092915050565b60007fd9b67a26000000000000000000000000000000000000000000000000000000007bffffffffffffffffffffffffffffffffffffffffffffffffffffffff1916827bffffffffffffffffffffffffffffffffffffffffffffffffffffffff191614806103ef57507f0e89341c000000000000000000000000000000000000000000000000000000007bffffffffffffffffffffffffffffffffffffffffffffffffffffffff1916827bffffffffffffffffffffffffffffffffffffffffffffffffffffffff1916145b806103ff57506103fe826108ed565b5b9050919050565b60606002805461041590612217565b80601f016020809104026020016040519081016040528092919081815260200182805461044190612217565b801561048e5780601f106104635761010080835404028352916020019161048e565b820191906000526020600020905b81548152906001019060200180831161047157829003601f168201915b50505050509050919050565b600082116104dd576040517f08c379a00000000000000000000000000000000000000000000000000000000081526004016104d490612294565b60405180910390fd5b6104f883838360405180602001604052806000815250610957565b8060046000848152602001908152602001600020600082825461051b91906122e3565b92505081905550505050565b61052f610b07565b73ffffffffffffffffffffffffffffffffffffffff168573ffffffffffffffffffffffffffffffffffffffff16148061057557506105748561056f610b07565b610735565b5b6105b4576040517f08c379a00000000000000000000000000000000000000000000000000000000081526004016105ab90612389565b60405180910390fd5b6105c18585858585610b0f565b5050505050565b6060815183511461060e576040517f08c379a00000000000000000000000000000000000000000000000000000000081526004016106059061241b565b60405180910390fd5b6000835167ffffffffffffffff81111561062b5761062a611ada565b5b6040519080825280602002602001820160405280156106595781602001602082028036833780820191505090505b50905060005b84518110156106d6576106a685828151811061067e5761067d61243b565b5b60200260200101518583815181106106995761069861243b565b5b602002602001015161025c565b8282815181106106b9576106b861243b565b5b602002602001018181525050806106cf9061246a565b905061065f565b508091505092915050565b6106e9610e30565b6106f36000610eae565b565b6000600360009054906101000a900473ffffffffffffffffffffffffffffffffffffffff16905090565b61073161072a610b07565b8383610f74565b5050565b6000600160008473ffffffffffffffffffffffffffffffffffffffff1673ffffffffffffffffffffffffffffffffffffffff16815260200190815260200160002060008373ffffffffffffffffffffffffffffffffffffffff1673ffffffffffffffffffffffffffffffffffffffff16815260200190815260200160002060009054906101000a900460ff16905092915050565b6107d1610b07565b73ffffffffffffffffffffffffffffffffffffffff168573ffffffffffffffffffffffffffffffffffffffff161480610817575061081685610811610b07565b610735565b5b610856576040517f08c379a000000000000000000000000000000000000000000000000000000000815260040161084d90612389565b60405180910390fd5b61086385858585856110e0565b5050505050565b610872610e30565b600073ffffffffffffffffffffffffffffffffffffffff168173ffffffffffffffffffffffffffffffffffffffff16036108e1576040517f08c379a00000000000000000000000000000000000000000000000000000000081526004016108d890612524565b60405180910390fd5b6108ea81610eae565b50565b60007f01ffc9a7000000000000000000000000000000000000000000000000000000007bffffffffffffffffffffffffffffffffffffffffffffffffffffffff1916827bffffffffffffffffffffffffffffffffffffffffffffffffffffffff1916149050919050565b600073ffffffffffffffffffffffffffffffffffffffff168473ffffffffffffffffffffffffffffffffffffffff16036109c6576040517f08c379a00000000000000000000000000000000000000000000000000000000081526004016109bd906125b6565b60405180910390fd5b60006109d0610b07565b905060006109dd8561137b565b905060006109ea8561137b565b90506109fb836000898585896113f5565b8460008088815260200190815260200160002060008973ffffffffffffffffffffffffffffffffffffffff1673ffffffffffffffffffffffffffffffffffffffff1681526020019081526020016000206000828254610a5a91906122e3565b925050819055508673ffffffffffffffffffffffffffffffffffffffff16600073ffffffffffffffffffffffffffffffffffffffff168473ffffffffffffffffffffffffffffffffffffffff167fc3d58168c5ae7397731d063d5bbf3d657854427343f4c083240f7aacaa2d0f628989604051610ad89291906125d6565b60405180910390a4610aef836000898585896113fd565b610afe83600089898989611405565b50505050505050565b600033905090565b8151835114610b53576040517f08c379a0000000000000000000000000000000000000000000000000000000008152600401610b4a90612671565b60405180910390fd5b600073ffffffffffffffffffffffffffffffffffffffff168473ffffffffffffffffffffffffffffffffffffffff1603610bc2576040517f08c379a0000000000000000000000000000000000000000000000000000000008152600401610bb990612703565b60405180910390fd5b6000610bcc610b07565b9050610bdc8187878787876113f5565b60005b8451811015610d8d576000858281518110610bfd57610bfc61243b565b5b602002602001015190506000858381518110610c1c57610c1b61243b565b5b60200260200101519050600080600084815260200190815260200160002060008b73ffffffffffffffffffffffffffffffffffffffff1673ffffffffffffffffffffffffffffffffffffffff16815260200190815260200160002054905081811015610cbd576040517f08c379a0000000000000000000000000000000000000000000000000000000008152600401610cb490612795565b60405180910390fd5b81810360008085815260200190815260200160002060008c73ffffffffffffffffffffffffffffffffffffffff1673ffffffffffffffffffffffffffffffffffffffff168152602001908152602001600020819055508160008085815260200190815260200160002060008b73ffffffffffffffffffffffffffffffffffffffff1673ffffffffffffffffffffffffffffffffffffffff1681526020019081526020016000206000828254610d7291906122e3565b9250508190555050505080610d869061246a565b9050610bdf565b508473ffffffffffffffffffffffffffffffffffffffff168673ffffffffffffffffffffffffffffffffffffffff168273ffffffffffffffffffffffffffffffffffffffff167f4a39dc06d4c0dbc64b70af90fd698a233a518aa5d07e595d983b8c0526c8f7fb8787604051610e049291906127b5565b60405180910390a4610e1a8187878787876113fd565b610e288187878787876115dc565b505050505050565b610e38610b07565b73ffffffffffffffffffffffffffffffffffffffff16610e566106f5565b73ffffffffffffffffffffffffffffffffffffffff1614610eac576040517f08c379a0000000000000000000000000000000000000000000000000000000008152600401610ea390612838565b60405180910390fd5b565b6000600360009054906101000a900473ffffffffffffffffffffffffffffffffffffffff16905081600360006101000a81548173ffffffffffffffffffffffffffffffffffffffff021916908373ffffffffffffffffffffffffffffffffffffffff1602179055508173ffffffffffffffffffffffffffffffffffffffff168173ffffffffffffffffffffffffffffffffffffffff167f8be0079c531659141344cd1fd0a4f28419497f9722a3daafe3b4186f6b6457e060405160405180910390a35050565b8173ffffffffffffffffffffffffffffffffffffffff168373ffffffffffffffffffffffffffffffffffffffff1603610fe2576040517f08c379a0000000000000000000000000000000000000000000000000000000008152600401610fd9906128ca565b60405180910390fd5b80600160008573ffffffffffffffffffffffffffffffffffffffff1673ffffffffffffffffffffffffffffffffffffffff16815260200190815260200160002060008473ffffffffffffffffffffffffffffffffffffffff1673ffffffffffffffffffffffffffffffffffffffff16815260200190815260200160002060006101000a81548160ff0219169083151502179055508173ffffffffffffffffffffffffffffffffffffffff168373ffffffffffffffffffffffffffffffffffffffff167f17307eab39ab6107e8899845ad3d59bd9653f200f220920489ca2b5937696c31836040516110d39190611988565b60405180910390a3505050565b600073ffffffffffffffffffffffffffffffffffffffff168473ffffffffffffffffffffffffffffffffffffffff160361114f576040517f08c379a000000000000000000000000000000000000000000000000000000000815260040161114690612703565b60405180910390fd5b6000611159610b07565b905060006111668561137b565b905060006111738561137b565b90506111838389898585896113f5565b600080600088815260200190815260200160002060008a73ffffffffffffffffffffffffffffffffffffffff1673ffffffffffffffffffffffffffffffffffffffff1681526020019081526020016000205490508581101561121a576040517f08c379a000000000000000000000000000000000000000000000000000000000815260040161121190612795565b60405180910390fd5b85810360008089815260200190815260200160002060008b73ffffffffffffffffffffffffffffffffffffffff1673ffffffffffffffffffffffffffffffffffffffff168152602001908152602001600020819055508560008089815260200190815260200160002060008a73ffffffffffffffffffffffffffffffffffffffff1673ffffffffffffffffffffffffffffffffffffffff16815260200190815260200160002060008282546112cf91906122e3565b925050819055508773ffffffffffffffffffffffffffffffffffffffff168973ffffffffffffffffffffffffffffffffffffffff168573ffffffffffffffffffffffffffffffffffffffff167fc3d58168c5ae7397731d063d5bbf3d657854427343f4c083240f7aacaa2d0f628a8a60405161134c9291906125d6565b60405180910390a4611362848a8a86868a6113fd565b611370848a8a8a8a8a611405565b505050505050505050565b60606000600167ffffffffffffffff81111561139a57611399611ada565b5b6040519080825280602002602001820160405280156113c85781602001602082028036833780820191505090505b50905082816000815181106113e0576113df61243b565b5b60200260200101818152505080915050919050565b505050505050565b505050505050565b6114248473ffffffffffffffffffffffffffffffffffffffff166117b3565b156115d4578373ffffffffffffffffffffffffffffffffffffffff1663f23a6e6187878686866040518663ffffffff1660e01b815260040161146a95949392919061293f565b6020604051808303816000875af19250505080156114a657506040513d601f19601f820116820180604052508101906114a391906129ae565b60015b61154b576114b26129e8565b806308c379a00361150e57506114c6612a0a565b806114d15750611510565b806040517f08c379a00000000000000000000000000000000000000000000000000000000081526004016115059190611a60565b60405180910390fd5b505b6040517f08c379a000000000000000000000000000000000000000000000000000000000815260040161154290612b0c565b60405180910390fd5b63f23a6e6160e01b7bffffffffffffffffffffffffffffffffffffffffffffffffffffffff1916817bffffffffffffffffffffffffffffffffffffffffffffffffffffffff1916146115d2576040517f08c379a00000000000000000000000000000000000000000000000000000000081526004016115c990612b9e565b60405180910390fd5b505b505050505050565b6115fb8473ffffffffffffffffffffffffffffffffffffffff166117b3565b156117ab578373ffffffffffffffffffffffffffffffffffffffff1663bc197c8187878686866040518663ffffffff1660e01b8152600401611641959493929190612bbe565b6020604051808303816000875af192505050801561167d57506040513d601f19601f8201168201806040525081019061167a91906129ae565b60015b611722576116896129e8565b806308c379a0036116e5575061169d612a0a565b806116a857506116e7565b806040517f08c379a00000000000000000000000000000000000000000000000000000000081526004016116dc9190611a60565b60405180910390fd5b505b6040517f08c379a000000000000000000000000000000000000000000000000000000000815260040161171990612b0c565b60405180910390fd5b63bc197c8160e01b7bffffffffffffffffffffffffffffffffffffffffffffffffffffffff1916817bffffffffffffffffffffffffffffffffffffffffffffffffffffffff1916146117a9576040517f08c379a00000000000000000000000000000000000000000000000000000000081526004016117a090612b9e565b60405180910390fd5b505b505050505050565b6000808273ffffffffffffffffffffffffffffffffffffffff163b119050919050565b6000604051905090565b600080fd5b600080fd5b600073ffffffffffffffffffffffffffffffffffffffff82169050919050565b6000611815826117ea565b9050919050565b6118258161180a565b811461183057600080fd5b50565b6000813590506118428161181c565b92915050565b6000819050919050565b61185b81611848565b811461186657600080fd5b50565b60008135905061187881611852565b92915050565b60008060408385031215611895576118946117e0565b5b60006118a385828601611833565b92505060206118b485828601611869565b9150509250929050565b6118c781611848565b82525050565b60006020820190506118e260008301846118be565b92915050565b60007fffffffff0000000000000000000000000000000000000000000000000000000082169050919050565b61191d816118e8565b811461192857600080fd5b50565b60008135905061193a81611914565b92915050565b600060208284031215611956576119556117e0565b5b60006119648482850161192b565b91505092915050565b60008115159050919050565b6119828161196d565b82525050565b600060208201905061199d6000830184611979565b92915050565b6000602082840312156119b9576119b86117e0565b5b60006119c784828501611869565b91505092915050565b600081519050919050565b600082825260208201905092915050565b60005b83811015611a0a5780820151818401526020810190506119ef565b60008484015250505050565b6000601f19601f8301169050919050565b6000611a32826119d0565b611a3c81856119db565b9350611a4c8185602086016119ec565b611a5581611a16565b840191505092915050565b60006020820190508181036000830152611a7a8184611a27565b905092915050565b600080600060608486031215611a9b57611a9a6117e0565b5b6000611aa986828701611833565b9350506020611aba86828701611869565b9250506040611acb86828701611869565b9150509250925092565b600080fd5b7f4e487b7100000000000000000000000000000000000000000000000000000000600052604160045260246000fd5b611b1282611a16565b810181811067ffffffffffffffff82111715611b3157611b30611ada565b5b80604052505050565b6000611b446117d6565b9050611b508282611b09565b919050565b600067ffffffffffffffff821115611b7057611b6f611ada565b5b602082029050602081019050919050565b600080fd5b6000611b99611b9484611b55565b611b3a565b90508083825260208201905060208402830185811115611bbc57611bbb611b81565b5b835b81811015611be55780611bd18882611869565b845260208401935050602081019050611bbe565b5050509392505050565b600082601f830112611c0457611c03611ad5565b5b8135611c14848260208601611b86565b91505092915050565b600080fd5b600067ffffffffffffffff821115611c3d57611c3c611ada565b5b611c4682611a16565b9050602081019050919050565b82818337600083830152505050565b6000611c75611c7084611c22565b611b3a565b905082815260208101848484011115611c9157611c90611c1d565b5b611c9c848285611c53565b509392505050565b600082601f830112611cb957611cb8611ad5565b5b8135611cc9848260208601611c62565b91505092915050565b600080600080600060a08688031215611cee57611ced6117e0565b5b6000611cfc88828901611833565b9550506020611d0d88828901611833565b945050604086013567ffffffffffffffff811115611d2e57611d2d6117e5565b5b611d3a88828901611bef565b935050606086013567ffffffffffffffff811115611d5b57611d5a6117e5565b5b611d6788828901611bef565b925050608086013567ffffffffffffffff811115611d8857611d876117e5565b5b611d9488828901611ca4565b9150509295509295909350565b600067ffffffffffffffff821115611dbc57611dbb611ada565b5b602082029050602081019050919050565b6000611de0611ddb84611da1565b611b3a565b90508083825260208201905060208402830185811115611e0357611e02611b81565b5b835b81811015611e2c5780611e188882611833565b845260208401935050602081019050611e05565b5050509392505050565b600082601f830112611e4b57611e4a611ad5565b5b8135611e5b848260208601611dcd565b91505092915050565b60008060408385031215611e7b57611e7a6117e0565b5b600083013567ffffffffffffffff811115611e9957611e986117e5565b5b611ea585828601611e36565b925050602083013567ffffffffffffffff811115611ec657611ec56117e5565b5b611ed285828601611bef565b9150509250929050565b600081519050919050565b600082825260208201905092915050565b6000819050602082019050919050565b611f1181611848565b82525050565b6000611f238383611f08565b60208301905092915050565b6000602082019050919050565b6000611f4782611edc565b611f518185611ee7565b9350611f5c83611ef8565b8060005b83811015611f8d578151611f748882611f17565b9750611f7f83611f2f565b925050600181019050611f60565b5085935050505092915050565b60006020820190508181036000830152611fb48184611f3c565b905092915050565b611fc58161180a565b82525050565b6000602082019050611fe06000830184611fbc565b92915050565b611fef8161196d565b8114611ffa57600080fd5b50565b60008135905061200c81611fe6565b92915050565b60008060408385031215612029576120286117e0565b5b600061203785828601611833565b925050602061204885828601611ffd565b9150509250929050565b60008060408385031215612069576120686117e0565b5b600061207785828601611833565b925050602061208885828601611833565b9150509250929050565b600080600080600060a086880312156120ae576120ad6117e0565b5b60006120bc88828901611833565b95505060206120cd88828901611833565b94505060406120de88828901611869565b93505060606120ef88828901611869565b925050608086013567ffffffffffffffff8111156121105761210f6117e5565b5b61211c88828901611ca4565b9150509295509295909350565b60006020828403121561213f5761213e6117e0565b5b600061214d84828501611833565b91505092915050565b7f455243313135353a2061646472657373207a65726f206973206e6f742061207660008201527f616c6964206f776e657200000000000000000000000000000000000000000000602082015250565b60006121b2602a836119db565b91506121bd82612156565b604082019050919050565b600060208201905081810360008301526121e1816121a5565b9050919050565b7f4e487b7100000000000000000000000000000000000000000000000000000000600052602260045260246000fd5b6000600282049050600182168061222f57607f821691505b602082108103612242576122416121e8565b5b50919050565b7f696e76616c696420696400000000000000000000000000000000000000000000600082015250565b600061227e600a836119db565b915061228982612248565b602082019050919050565b600060208201905081810360008301526122ad81612271565b9050919050565b7f4e487b7100000000000000000000000000000000000000000000000000000000600052601160045260246000fd5b60006122ee82611848565b91506122f983611848565b9250828201905080821115612311576123106122b4565b5b92915050565b7f455243313135353a2063616c6c6572206973206e6f7420746f6b656e206f776e60008201527f6572206f7220617070726f766564000000000000000000000000000000000000602082015250565b6000612373602e836119db565b915061237e82612317565b604082019050919050565b600060208201905081810360008301526123a281612366565b9050919050565b7f455243313135353a206163636f756e747320616e6420696473206c656e67746860008201527f206d69736d617463680000000000000000000000000000000000000000000000602082015250565b60006124056029836119db565b9150612410826123a9565b604082019050919050565b60006020820190508181036000830152612434816123f8565b9050919050565b7f4e487b7100000000000000000000000000000000000000000000000000000000600052603260045260246000fd5b600061247582611848565b91507fffffffffffffffffffffffffffffffffffffffffffffffffffffffffffffffff82036124a7576124a66122b4565b5b600182019050919050565b7f4f776e61626c653a206e6577206f776e657220697320746865207a65726f206160008201527f6464726573730000000000000000000000000000000000000000000000000000602082015250565b600061250e6026836119db565b9150612519826124b2565b604082019050919050565b6000602082019050818103600083015261253d81612501565b9050919050565b7f455243313135353a206d696e7420746f20746865207a65726f2061646472657360008201527f7300000000000000000000000000000000000000000000000000000000000000602082015250565b60006125a06021836119db565b91506125ab82612544565b604082019050919050565b600060208201905081810360008301526125cf81612593565b9050919050565b60006040820190506125eb60008301856118be565b6125f860208301846118be565b9392505050565b7f455243313135353a2069647320616e6420616d6f756e7473206c656e6774682060008201527f6d69736d61746368000000000000000000000000000000000000000000000000602082015250565b600061265b6028836119db565b9150612666826125ff565b604082019050919050565b6000602082019050818103600083015261268a8161264e565b9050919050565b7f455243313135353a207472616e7366657220746f20746865207a65726f20616460008201527f6472657373000000000000000000000000000000000000000000000000000000602082015250565b60006126ed6025836119db565b91506126f882612691565b604082019050919050565b6000602082019050818103600083015261271c816126e0565b9050919050565b7f455243313135353a20696e73756666696369656e742062616c616e636520666f60008201527f72207472616e7366657200000000000000000000000000000000000000000000602082015250565b600061277f602a836119db565b915061278a82612723565b604082019050919050565b600060208201905081810360008301526127ae81612772565b9050919050565b600060408201905081810360008301526127cf8185611f3c565b905081810360208301526127e38184611f3c565b90509392505050565b7f4f776e61626c653a2063616c6c6572206973206e6f7420746865206f776e6572600082015250565b60006128226020836119db565b915061282d826127ec565b602082019050919050565b6000602082019050818103600083015261285181612815565b9050919050565b7f455243313135353a2073657474696e6720617070726f76616c2073746174757360008201527f20666f722073656c660000000000000000000000000000000000000000000000602082015250565b60006128b46029836119db565b91506128bf82612858565b604082019050919050565b600060208201905081810360008301526128e3816128a7565b9050919050565b600081519050919050565b600082825260208201905092915050565b6000612911826128ea565b61291b81856128f5565b935061292b8185602086016119ec565b61293481611a16565b840191505092915050565b600060a0820190506129546000830188611fbc565b6129616020830187611fbc565b61296e60408301866118be565b61297b60608301856118be565b818103608083015261298d8184612906565b90509695505050505050565b6000815190506129a881611914565b92915050565b6000602082840312156129c4576129c36117e0565b5b60006129d284828501612999565b91505092915050565b60008160e01c9050919050565b600060033d1115612a075760046000803e612a046000516129db565b90505b90565b600060443d10612a9757612a1c6117d6565b60043d036004823e80513d602482011167ffffffffffffffff82111715612a44575050612a97565b808201805167ffffffffffffffff811115612a625750505050612a97565b80602083010160043d038501811115612a7f575050505050612a97565b612a8e82602001850186611b09565b82955050505050505b90565b7f455243313135353a207472616e7366657220746f206e6f6e2d4552433131353560008201527f526563656976657220696d706c656d656e746572000000000000000000000000602082015250565b6000612af66034836119db565b9150612b0182612a9a565b604082019050919050565b60006020820190508181036000830152612b2581612ae9565b9050919050565b7f455243313135353a204552433131353552656365697665722072656a6563746560008201527f6420746f6b656e73000000000000000000000000000000000000000000000000602082015250565b6000612b886028836119db565b9150612b9382612b2c565b604082019050919050565b60006020820190508181036000830152612bb781612b7b565b9050919050565b600060a082019050612bd36000830188611fbc565b612be06020830187611fbc565b8181036040830152612bf28186611f3c565b90508181036060830152612c068185611f3c565b90508181036080830152612c1a8184612906565b9050969550505050505056fea2646970667358221220537d931fff58b85cbc9d0a66aaefa5af59e0e8d1d75c36c10c7212e2853346f464736f6c6343000812003368747470733a2f2f6261667962656965796136623277693233326762373566326c6e746a756f717834646c736a79337577676266686c66756633326569756a767075612e697066732e647765622e6c696e6b2f312e6a736f6e",
  "linkReferences": {},
  "deployedLinkReferences": {}
}