{
  "_format": "hh-sol-artifact-1",
  "contractName": "NFTmint",
  "sourceName": "contracts/NFTmint.sol",
  "abi": [
    {
      "inputs": [],
      "stateMutability": "nonpayable",
      "type": "constructor"
    },
    {
      "anonymous": false,
      "inputs": [
        {
          "indexed": true,
          "internalType": "address",
          "name": "owner",
          "type": "address"
        },
        {
          "indexed": true,
          "internalType": "address",
          "name": "approved",
          "type": "address"
        },
        {
          "indexed": true,
          "internalType": "uint256",
          "name": "tokenId",
          "type": "uint256"
        }
      ],
      "name": "Approval",
      "type": "event"
    },
    {
      "anonymous": false,
      "inputs": [
        {
          "indexed": true,
          "internalType": "address",
          "name": "owner",
          "type": "address"
        },
        {
          "indexed": true,
          "internalType": "address",
          "name": "operator",
          "type": "address"
        },
        {
          "indexed": false,
          "internalType": "bool",
          "name": "approved",
          "type": "bool"
        }
      ],
      "name": "ApprovalForAll",
      "type": "event"
    },
    {
      "anonymous": false,
      "inputs": [
        {
          "indexed": true,
          "internalType": "address",
          "name": "previousOwner",
          "type": "address"
        },
        {
          "indexed": true,
          "internalType": "address",
          "name": "newOwner",
          "type": "address"
        }
      ],
      "name": "OwnershipTransferred",
      "type": "event"
    },
    {
      "anonymous": false,
      "inputs": [
        {
          "indexed": true,
          "internalType": "address",
          "name": "from",
          "type": "address"
        },
        {
          "indexed": true,
          "internalType": "address",
          "name": "to",
          "type": "address"
        },
        {
          "indexed": true,
          "internalType": "uint256",
          "name": "tokenId",
          "type": "uint256"
        }
      ],
      "name": "Transfer",
      "type": "event"
    },
    {
      "inputs": [
        {
          "internalType": "address",
          "name": "to",
          "type": "address"
        },
        {
          "internalType": "uint256",
          "name": "tokenId",
          "type": "uint256"
        }
      ],
      "name": "approve",
      "outputs": [],
      "stateMutability": "nonpayable",
      "type": "function"
    },
    {
      "inputs": [
        {
          "internalType": "address",
          "name": "owner",
          "type": "address"
        }
      ],
      "name": "balanceOf",
      "outputs": [
        {
          "internalType": "uint256",
          "name": "",
          "type": "uint256"
        }
      ],
      "stateMutability": "view",
      "type": "function"
    },
    {
      "inputs": [
        {
          "internalType": "uint256",
          "name": "tokenId",
          "type": "uint256"
        }
      ],
      "name": "getApproved",
      "outputs": [
        {
          "internalType": "address",
          "name": "",
          "type": "address"
        }
      ],
      "stateMutability": "view",
      "type": "function"
    },
    {
      "inputs": [
        {
          "internalType": "address",
          "name": "owner",
          "type": "address"
        },
        {
          "internalType": "address",
          "name": "operator",
          "type": "address"
        }
      ],
      "name": "isApprovedForAll",
      "outputs": [
        {
          "internalType": "bool",
          "name": "",
          "type": "bool"
        }
      ],
      "stateMutability": "view",
      "type": "function"
    },
    {
      "inputs": [],
      "name": "name",
      "outputs": [
        {
          "internalType": "string",
          "name": "",
          "type": "string"
        }
      ],
      "stateMutability": "view",
      "type": "function"
    },
    {
      "inputs": [],
      "name": "owner",
      "outputs": [
        {
          "internalType": "address",
          "name": "",
          "type": "address"
        }
      ],
      "stateMutability": "view",
      "type": "function"
    },
    {
      "inputs": [
        {
          "internalType": "uint256",
          "name": "tokenId",
          "type": "uint256"
        }
      ],
      "name": "ownerOf",
      "outputs": [
        {
          "internalType": "address",
          "name": "",
          "type": "address"
        }
      ],
      "stateMutability": "view",
      "type": "function"
    },
    {
      "inputs": [],
      "name": "renounceOwnership",
      "outputs": [],
      "stateMutability": "nonpayable",
      "type": "function"
    },
    {
      "inputs": [
        {
          "internalType": "address",
          "name": "_to",
          "type": "address"
        },
        {
          "internalType": "string",
          "name": "uri",
          "type": "string"
        }
      ],
      "name": "safeMint",
      "outputs": [],
      "stateMutability": "nonpayable",
      "type": "function"
    },
    {
      "inputs": [
        {
          "internalType": "address",
          "name": "from",
          "type": "address"
        },
        {
          "internalType": "address",
          "name": "to",
          "type": "address"
        },
        {
          "internalType": "uint256",
          "name": "tokenId",
          "type": "uint256"
        }
      ],
      "name": "safeTransferFrom",
      "outputs": [],
      "stateMutability": "nonpayable",
      "type": "function"
    },
    {
      "inputs": [
        {
          "internalType": "address",
          "name": "from",
          "type": "address"
        },
        {
          "internalType": "address",
          "name": "to",
          "type": "address"
        },
        {
          "internalType": "uint256",
          "name": "tokenId",
          "type": "uint256"
        },
        {
          "internalType": "bytes",
          "name": "data",
          "type": "bytes"
        }
      ],
      "name": "safeTransferFrom",
      "outputs": [],
      "stateMutability": "nonpayable",
      "type": "function"
    },
    {
      "inputs": [
        {
          "internalType": "address",
          "name": "operator",
          "type": "address"
        },
        {
          "internalType": "bool",
          "name": "approved",
          "type": "bool"
        }
      ],
      "name": "setApprovalForAll",
      "outputs": [],
      "stateMutability": "nonpayable",
      "type": "function"
    },
    {
      "inputs": [
        {
          "internalType": "bytes4",
          "name": "interfaceId",
          "type": "bytes4"
        }
      ],
      "name": "supportsInterface",
      "outputs": [
        {
          "internalType": "bool",
          "name": "",
          "type": "bool"
        }
      ],
      "stateMutability": "view",
      "type": "function"
    },
    {
      "inputs": [],
      "name": "symbol",
      "outputs": [
        {
          "internalType": "string",
          "name": "",
          "type": "string"
        }
      ],
      "stateMutability": "view",
      "type": "function"
    },
    {
      "inputs": [
        {
          "internalType": "uint256",
          "name": "tokenId",
          "type": "uint256"
        }
      ],
      "name": "tokenURI",
      "outputs": [
        {
          "internalType": "string",
          "name": "",
          "type": "string"
        }
      ],
      "stateMutability": "view",
      "type": "function"
    },
    {
      "inputs": [],
      "name": "totalSupply",
      "outputs": [
        {
          "internalType": "uint256",
          "name": "",
          "type": "uint256"
        }
      ],
      "stateMutability": "view",
      "type": "function"
    },
    {
      "inputs": [
        {
          "internalType": "address",
          "name": "from",
          "type": "address"
        },
        {
          "internalType": "address",
          "name": "to",
          "type": "address"
        },
        {
          "internalType": "uint256",
          "name": "tokenId",
          "type": "uint256"
        }
      ],
      "name": "transferFrom",
      "outputs": [],
      "stateMutability": "nonpayable",
      "type": "function"
    },
    {
      "inputs": [
        {
          "internalType": "address",
          "name": "newOwner",
          "type": "address"
        }
      ],
      "name": "transferOwnership",
      "outputs": [],
      "stateMutability": "nonpayable",
      "type": "function"
    }
  ],
  "bytecode": "0x60806040523480156200001157600080fd5b506040518060400160405280600681526020017f42686f6f6d6900000000000000000000000000000000000000000000000000008152506040518060400160405280600581526020017f424d37323100000000000000000000000000000000000000000000000000000081525081600090816200008f919062000412565b508060019081620000a1919062000412565b505050620000c4620000b8620000ca60201b60201c565b620000d260201b60201c565b620004f9565b600033905090565b6000600760009054906101000a900473ffffffffffffffffffffffffffffffffffffffff16905081600760006101000a81548173ffffffffffffffffffffffffffffffffffffffff021916908373ffffffffffffffffffffffffffffffffffffffff1602179055508173ffffffffffffffffffffffffffffffffffffffff168173ffffffffffffffffffffffffffffffffffffffff167f8be0079c531659141344cd1fd0a4f28419497f9722a3daafe3b4186f6b6457e060405160405180910390a35050565b600081519050919050565b7f4e487b7100000000000000000000000000000000000000000000000000000000600052604160045260246000fd5b7f4e487b7100000000000000000000000000000000000000000000000000000000600052602260045260246000fd5b600060028204905060018216806200021a57607f821691505b60208210810362000230576200022f620001d2565b5b50919050565b60008190508160005260206000209050919050565b60006020601f8301049050919050565b600082821b905092915050565b6000600883026200029a7fffffffffffffffffffffffffffffffffffffffffffffffffffffffffffffffff826200025b565b620002a686836200025b565b95508019841693508086168417925050509392505050565b6000819050919050565b6000819050919050565b6000620002f3620002ed620002e784620002be565b620002c8565b620002be565b9050919050565b6000819050919050565b6200030f83620002d2565b620003276200031e82620002fa565b84845462000268565b825550505050565b600090565b6200033e6200032f565b6200034b81848462000304565b505050565b5b8181101562000373576200036760008262000334565b60018101905062000351565b5050565b601f821115620003c2576200038c8162000236565b62000397846200024b565b81016020851015620003a7578190505b620003bf620003b6856200024b565b83018262000350565b50505b505050565b600082821c905092915050565b6000620003e760001984600802620003c7565b1980831691505092915050565b6000620004028383620003d4565b9150826002028217905092915050565b6200041d8262000198565b67ffffffffffffffff811115620004395762000438620001a3565b5b62000445825462000201565b6200045282828562000377565b600060209050601f8311600181146200048a576000841562000475578287015190505b620004818582620003f4565b865550620004f1565b601f1984166200049a8662000236565b60005b82811015620004c4578489015182556001820191506020850194506020810190506200049d565b86831015620004e45784890151620004e0601f891682620003d4565b8355505b6001600288020188555050505b505050505050565b612e5a80620005096000396000f3fe608060405234801561001057600080fd5b50600436106101165760003560e01c8063715018a6116100a2578063b88d4fde11610071578063b88d4fde146102cd578063c87b56dd146102e9578063d204c45e14610319578063e985e9c514610335578063f2fde38b1461036557610116565b8063715018a61461026b5780638da5cb5b1461027557806395d89b4114610293578063a22cb465146102b157610116565b806318160ddd116100e957806318160ddd146101b557806323b872dd146101d357806342842e0e146101ef5780636352211e1461020b57806370a082311461023b57610116565b806301ffc9a71461011b57806306fdde031461014b578063081812fc14610169578063095ea7b314610199575b600080fd5b61013560048036038101906101309190611c4b565b610381565b6040516101429190611c93565b60405180910390f35b610153610463565b6040516101609190611d3e565b60405180910390f35b610183600480360381019061017e9190611d96565b6104f5565b6040516101909190611e04565b60405180910390f35b6101b360048036038101906101ae9190611e4b565b61053b565b005b6101bd610652565b6040516101ca9190611e9a565b60405180910390f35b6101ed60048036038101906101e89190611eb5565b610663565b005b61020960048036038101906102049190611eb5565b6106c3565b005b61022560048036038101906102209190611d96565b6106e3565b6040516102329190611e04565b60405180910390f35b61025560048036038101906102509190611f08565b610769565b6040516102629190611e9a565b60405180910390f35b610273610820565b005b61027d610834565b60405161028a9190611e04565b60405180910390f35b61029b61085e565b6040516102a89190611d3e565b60405180910390f35b6102cb60048036038101906102c69190611f61565b6108f0565b005b6102e760048036038101906102e291906120d6565b610906565b005b61030360048036038101906102fe9190611d96565b610968565b6040516103109190611d3e565b60405180910390f35b610333600480360381019061032e91906121fa565b61097a565b005b61034f600480360381019061034a9190612256565b6109ab565b60405161035c9190611c93565b60405180910390f35b61037f600480360381019061037a9190611f08565b610a3f565b005b60007f80ac58cd000000000000000000000000000000000000000000000000000000007bffffffffffffffffffffffffffffffffffffffffffffffffffffffff1916827bffffffffffffffffffffffffffffffffffffffffffffffffffffffff1916148061044c57507f5b5e139f000000000000000000000000000000000000000000000000000000007bffffffffffffffffffffffffffffffffffffffffffffffffffffffff1916827bffffffffffffffffffffffffffffffffffffffffffffffffffffffff1916145b8061045c575061045b82610ac2565b5b9050919050565b606060008054610472906122c5565b80601f016020809104026020016040519081016040528092919081815260200182805461049e906122c5565b80156104eb5780601f106104c0576101008083540402835291602001916104eb565b820191906000526020600020905b8154815290600101906020018083116104ce57829003601f168201915b5050505050905090565b600061050082610b2c565b6004600083815260200190815260200160002060009054906101000a900473ffffffffffffffffffffffffffffffffffffffff169050919050565b6000610546826106e3565b90508073ffffffffffffffffffffffffffffffffffffffff168373ffffffffffffffffffffffffffffffffffffffff16036105b6576040517f08c379a00000000000000000000000000000000000000000000000000000000081526004016105ad90612368565b60405180910390fd5b8073ffffffffffffffffffffffffffffffffffffffff166105d5610b77565b73ffffffffffffffffffffffffffffffffffffffff1614806106045750610603816105fe610b77565b6109ab565b5b610643576040517f08c379a000000000000000000000000000000000000000000000000000000000815260040161063a906123fa565b60405180910390fd5b61064d8383610b7f565b505050565b600061065e6008610c38565b905090565b61067461066e610b77565b82610c46565b6106b3576040517f08c379a00000000000000000000000000000000000000000000000000000000081526004016106aa9061248c565b60405180910390fd5b6106be838383610cdb565b505050565b6106de83838360405180602001604052806000815250610906565b505050565b6000806106ef83610fd4565b9050600073ffffffffffffffffffffffffffffffffffffffff168173ffffffffffffffffffffffffffffffffffffffff1603610760576040517f08c379a0000000000000000000000000000000000000000000000000000000008152600401610757906124f8565b60405180910390fd5b80915050919050565b60008073ffffffffffffffffffffffffffffffffffffffff168273ffffffffffffffffffffffffffffffffffffffff16036107d9576040517f08c379a00000000000000000000000000000000000000000000000000000000081526004016107d09061258a565b60405180910390fd5b600360008373ffffffffffffffffffffffffffffffffffffffff1673ffffffffffffffffffffffffffffffffffffffff168152602001908152602001600020549050919050565b610828611011565b610832600061108f565b565b6000600760009054906101000a900473ffffffffffffffffffffffffffffffffffffffff16905090565b60606001805461086d906122c5565b80601f0160208091040260200160405190810160405280929190818152602001828054610899906122c5565b80156108e65780601f106108bb576101008083540402835291602001916108e6565b820191906000526020600020905b8154815290600101906020018083116108c957829003601f168201915b5050505050905090565b6109026108fb610b77565b8383611155565b5050565b610917610911610b77565b83610c46565b610956576040517f08c379a000000000000000000000000000000000000000000000000000000000815260040161094d9061248c565b60405180910390fd5b610962848484846112c1565b50505050565b60606109738261131d565b9050919050565b60006109866008610c38565b9050610992600861142f565b61099c8382611445565b6109a68183611463565b505050565b6000600560008473ffffffffffffffffffffffffffffffffffffffff1673ffffffffffffffffffffffffffffffffffffffff16815260200190815260200160002060008373ffffffffffffffffffffffffffffffffffffffff1673ffffffffffffffffffffffffffffffffffffffff16815260200190815260200160002060009054906101000a900460ff16905092915050565b610a47611011565b600073ffffffffffffffffffffffffffffffffffffffff168173ffffffffffffffffffffffffffffffffffffffff1603610ab6576040517f08c379a0000000000000000000000000000000000000000000000000000000008152600401610aad9061261c565b60405180910390fd5b610abf8161108f565b50565b60007f01ffc9a7000000000000000000000000000000000000000000000000000000007bffffffffffffffffffffffffffffffffffffffffffffffffffffffff1916827bffffffffffffffffffffffffffffffffffffffffffffffffffffffff1916149050919050565b610b35816114d0565b610b74576040517f08c379a0000000000000000000000000000000000000000000000000000000008152600401610b6b906124f8565b60405180910390fd5b50565b600033905090565b816004600083815260200190815260200160002060006101000a81548173ffffffffffffffffffffffffffffffffffffffff021916908373ffffffffffffffffffffffffffffffffffffffff160217905550808273ffffffffffffffffffffffffffffffffffffffff16610bf2836106e3565b73ffffffffffffffffffffffffffffffffffffffff167f8c5be1e5ebec7d5bd14f71427d1e84f3dd0314c0f7b2291e5b200ac8c7c3b92560405160405180910390a45050565b600081600001549050919050565b600080610c52836106e3565b90508073ffffffffffffffffffffffffffffffffffffffff168473ffffffffffffffffffffffffffffffffffffffff161480610c945750610c9381856109ab565b5b80610cd257508373ffffffffffffffffffffffffffffffffffffffff16610cba846104f5565b73ffffffffffffffffffffffffffffffffffffffff16145b91505092915050565b8273ffffffffffffffffffffffffffffffffffffffff16610cfb826106e3565b73ffffffffffffffffffffffffffffffffffffffff1614610d51576040517f08c379a0000000000000000000000000000000000000000000000000000000008152600401610d48906126ae565b60405180910390fd5b600073ffffffffffffffffffffffffffffffffffffffff168273ffffffffffffffffffffffffffffffffffffffff1603610dc0576040517f08c379a0000000000000000000000000000000000000000000000000000000008152600401610db790612740565b60405180910390fd5b610dcd8383836001611511565b8273ffffffffffffffffffffffffffffffffffffffff16610ded826106e3565b73ffffffffffffffffffffffffffffffffffffffff1614610e43576040517f08c379a0000000000000000000000000000000000000000000000000000000008152600401610e3a906126ae565b60405180910390fd5b6004600082815260200190815260200160002060006101000a81549073ffffffffffffffffffffffffffffffffffffffff02191690556001600360008573ffffffffffffffffffffffffffffffffffffffff1673ffffffffffffffffffffffffffffffffffffffff168152602001908152602001600020600082825403925050819055506001600360008473ffffffffffffffffffffffffffffffffffffffff1673ffffffffffffffffffffffffffffffffffffffff16815260200190815260200160002060008282540192505081905550816002600083815260200190815260200160002060006101000a81548173ffffffffffffffffffffffffffffffffffffffff021916908373ffffffffffffffffffffffffffffffffffffffff160217905550808273ffffffffffffffffffffffffffffffffffffffff168473ffffffffffffffffffffffffffffffffffffffff167fddf252ad1be2c89b69c2b068fc378daa952ba7f163c4a11628f55a4df523b3ef60405160405180910390a4610fcf8383836001611517565b505050565b60006002600083815260200190815260200160002060009054906101000a900473ffffffffffffffffffffffffffffffffffffffff169050919050565b611019610b77565b73ffffffffffffffffffffffffffffffffffffffff16611037610834565b73ffffffffffffffffffffffffffffffffffffffff161461108d576040517f08c379a0000000000000000000000000000000000000000000000000000000008152600401611084906127ac565b60405180910390fd5b565b6000600760009054906101000a900473ffffffffffffffffffffffffffffffffffffffff16905081600760006101000a81548173ffffffffffffffffffffffffffffffffffffffff021916908373ffffffffffffffffffffffffffffffffffffffff1602179055508173ffffffffffffffffffffffffffffffffffffffff168173ffffffffffffffffffffffffffffffffffffffff167f8be0079c531659141344cd1fd0a4f28419497f9722a3daafe3b4186f6b6457e060405160405180910390a35050565b8173ffffffffffffffffffffffffffffffffffffffff168373ffffffffffffffffffffffffffffffffffffffff16036111c3576040517f08c379a00000000000000000000000000000000000000000000000000000000081526004016111ba90612818565b60405180910390fd5b80600560008573ffffffffffffffffffffffffffffffffffffffff1673ffffffffffffffffffffffffffffffffffffffff16815260200190815260200160002060008473ffffffffffffffffffffffffffffffffffffffff1673ffffffffffffffffffffffffffffffffffffffff16815260200190815260200160002060006101000a81548160ff0219169083151502179055508173ffffffffffffffffffffffffffffffffffffffff168373ffffffffffffffffffffffffffffffffffffffff167f17307eab39ab6107e8899845ad3d59bd9653f200f220920489ca2b5937696c31836040516112b49190611c93565b60405180910390a3505050565b6112cc848484610cdb565b6112d88484848461151d565b611317576040517f08c379a000000000000000000000000000000000000000000000000000000000815260040161130e906128aa565b60405180910390fd5b50505050565b606061132882610b2c565b6000600660008481526020019081526020016000208054611348906122c5565b80601f0160208091040260200160405190810160405280929190818152602001828054611374906122c5565b80156113c15780601f10611396576101008083540402835291602001916113c1565b820191906000526020600020905b8154815290600101906020018083116113a457829003601f168201915b5050505050905060006113d26116a4565b905060008151036113e757819250505061142a565b60008251111561141c578082604051602001611404929190612906565b6040516020818303038152906040529250505061142a565b611425846116bb565b925050505b919050565b6001816000016000828254019250508190555050565b61145f828260405180602001604052806000815250611723565b5050565b61146c826114d0565b6114ab576040517f08c379a00000000000000000000000000000000000000000000000000000000081526004016114a29061299c565b60405180910390fd5b806006600084815260200190815260200160002090816114cb9190612b68565b505050565b60008073ffffffffffffffffffffffffffffffffffffffff166114f283610fd4565b73ffffffffffffffffffffffffffffffffffffffff1614159050919050565b50505050565b50505050565b600061153e8473ffffffffffffffffffffffffffffffffffffffff1661177e565b15611697578373ffffffffffffffffffffffffffffffffffffffff1663150b7a02611567610b77565b8786866040518563ffffffff1660e01b81526004016115899493929190612c8f565b6020604051808303816000875af19250505080156115c557506040513d601f19601f820116820180604052508101906115c29190612cf0565b60015b611647573d80600081146115f5576040519150601f19603f3d011682016040523d82523d6000602084013e6115fa565b606091505b50600081510361163f576040517f08c379a0000000000000000000000000000000000000000000000000000000008152600401611636906128aa565b60405180910390fd5b805181602001fd5b63150b7a0260e01b7bffffffffffffffffffffffffffffffffffffffffffffffffffffffff1916817bffffffffffffffffffffffffffffffffffffffffffffffffffffffff19161491505061169c565b600190505b949350505050565b606060405180602001604052806000815250905090565b60606116c682610b2c565b60006116d06116a4565b905060008151116116f0576040518060200160405280600081525061171b565b806116fa846117a1565b60405160200161170b929190612906565b6040516020818303038152906040525b915050919050565b61172d838361186f565b61173a600084848461151d565b611779576040517f08c379a0000000000000000000000000000000000000000000000000000000008152600401611770906128aa565b60405180910390fd5b505050565b6000808273ffffffffffffffffffffffffffffffffffffffff163b119050919050565b6060600060016117b084611a8c565b01905060008167ffffffffffffffff8111156117cf576117ce611fab565b5b6040519080825280601f01601f1916602001820160405280156118015781602001600182028036833780820191505090505b509050600082602001820190505b600115611864578080600190039150507f3031323334353637383961626364656600000000000000000000000000000000600a86061a8153600a858161185857611857612d1d565b5b0494506000850361180f575b819350505050919050565b600073ffffffffffffffffffffffffffffffffffffffff168273ffffffffffffffffffffffffffffffffffffffff16036118de576040517f08c379a00000000000000000000000000000000000000000000000000000000081526004016118d590612d98565b60405180910390fd5b6118e7816114d0565b15611927576040517f08c379a000000000000000000000000000000000000000000000000000000000815260040161191e90612e04565b60405180910390fd5b611935600083836001611511565b61193e816114d0565b1561197e576040517f08c379a000000000000000000000000000000000000000000000000000000000815260040161197590612e04565b60405180910390fd5b6001600360008473ffffffffffffffffffffffffffffffffffffffff1673ffffffffffffffffffffffffffffffffffffffff16815260200190815260200160002060008282540192505081905550816002600083815260200190815260200160002060006101000a81548173ffffffffffffffffffffffffffffffffffffffff021916908373ffffffffffffffffffffffffffffffffffffffff160217905550808273ffffffffffffffffffffffffffffffffffffffff16600073ffffffffffffffffffffffffffffffffffffffff167fddf252ad1be2c89b69c2b068fc378daa952ba7f163c4a11628f55a4df523b3ef60405160405180910390a4611a88600083836001611517565b5050565b600080600090507a184f03e93ff9f4daa797ed6e38ed64bf6a1f0100000000000000008310611aea577a184f03e93ff9f4daa797ed6e38ed64bf6a1f0100000000000000008381611ae057611adf612d1d565b5b0492506040810190505b6d04ee2d6d415b85acef81000000008310611b27576d04ee2d6d415b85acef81000000008381611b1d57611b1c612d1d565b5b0492506020810190505b662386f26fc100008310611b5657662386f26fc100008381611b4c57611b4b612d1d565b5b0492506010810190505b6305f5e1008310611b7f576305f5e1008381611b7557611b74612d1d565b5b0492506008810190505b6127108310611ba4576127108381611b9a57611b99612d1d565b5b0492506004810190505b60648310611bc75760648381611bbd57611bbc612d1d565b5b0492506002810190505b600a8310611bd6576001810190505b80915050919050565b6000604051905090565b600080fd5b600080fd5b60007fffffffff0000000000000000000000000000000000000000000000000000000082169050919050565b611c2881611bf3565b8114611c3357600080fd5b50565b600081359050611c4581611c1f565b92915050565b600060208284031215611c6157611c60611be9565b5b6000611c6f84828501611c36565b91505092915050565b60008115159050919050565b611c8d81611c78565b82525050565b6000602082019050611ca86000830184611c84565b92915050565b600081519050919050565b600082825260208201905092915050565b60005b83811015611ce8578082015181840152602081019050611ccd565b60008484015250505050565b6000601f19601f8301169050919050565b6000611d1082611cae565b611d1a8185611cb9565b9350611d2a818560208601611cca565b611d3381611cf4565b840191505092915050565b60006020820190508181036000830152611d588184611d05565b905092915050565b6000819050919050565b611d7381611d60565b8114611d7e57600080fd5b50565b600081359050611d9081611d6a565b92915050565b600060208284031215611dac57611dab611be9565b5b6000611dba84828501611d81565b91505092915050565b600073ffffffffffffffffffffffffffffffffffffffff82169050919050565b6000611dee82611dc3565b9050919050565b611dfe81611de3565b82525050565b6000602082019050611e196000830184611df5565b92915050565b611e2881611de3565b8114611e3357600080fd5b50565b600081359050611e4581611e1f565b92915050565b60008060408385031215611e6257611e61611be9565b5b6000611e7085828601611e36565b9250506020611e8185828601611d81565b9150509250929050565b611e9481611d60565b82525050565b6000602082019050611eaf6000830184611e8b565b92915050565b600080600060608486031215611ece57611ecd611be9565b5b6000611edc86828701611e36565b9350506020611eed86828701611e36565b9250506040611efe86828701611d81565b9150509250925092565b600060208284031215611f1e57611f1d611be9565b5b6000611f2c84828501611e36565b91505092915050565b611f3e81611c78565b8114611f4957600080fd5b50565b600081359050611f5b81611f35565b92915050565b60008060408385031215611f7857611f77611be9565b5b6000611f8685828601611e36565b9250506020611f9785828601611f4c565b9150509250929050565b600080fd5b600080fd5b7f4e487b7100000000000000000000000000000000000000000000000000000000600052604160045260246000fd5b611fe382611cf4565b810181811067ffffffffffffffff8211171561200257612001611fab565b5b80604052505050565b6000612015611bdf565b90506120218282611fda565b919050565b600067ffffffffffffffff82111561204157612040611fab565b5b61204a82611cf4565b9050602081019050919050565b82818337600083830152505050565b600061207961207484612026565b61200b565b90508281526020810184848401111561209557612094611fa6565b5b6120a0848285612057565b509392505050565b600082601f8301126120bd576120bc611fa1565b5b81356120cd848260208601612066565b91505092915050565b600080600080608085870312156120f0576120ef611be9565b5b60006120fe87828801611e36565b945050602061210f87828801611e36565b935050604061212087828801611d81565b925050606085013567ffffffffffffffff81111561214157612140611bee565b5b61214d878288016120a8565b91505092959194509250565b600067ffffffffffffffff82111561217457612173611fab565b5b61217d82611cf4565b9050602081019050919050565b600061219d61219884612159565b61200b565b9050828152602081018484840111156121b9576121b8611fa6565b5b6121c4848285612057565b509392505050565b600082601f8301126121e1576121e0611fa1565b5b81356121f184826020860161218a565b91505092915050565b6000806040838503121561221157612210611be9565b5b600061221f85828601611e36565b925050602083013567ffffffffffffffff8111156122405761223f611bee565b5b61224c858286016121cc565b9150509250929050565b6000806040838503121561226d5761226c611be9565b5b600061227b85828601611e36565b925050602061228c85828601611e36565b9150509250929050565b7f4e487b7100000000000000000000000000000000000000000000000000000000600052602260045260246000fd5b600060028204905060018216806122dd57607f821691505b6020821081036122f0576122ef612296565b5b50919050565b7f4552433732313a20617070726f76616c20746f2063757272656e74206f776e6560008201527f7200000000000000000000000000000000000000000000000000000000000000602082015250565b6000612352602183611cb9565b915061235d826122f6565b604082019050919050565b6000602082019050818103600083015261238181612345565b9050919050565b7f4552433732313a20617070726f76652063616c6c6572206973206e6f7420746f60008201527f6b656e206f776e6572206f7220617070726f76656420666f7220616c6c000000602082015250565b60006123e4603d83611cb9565b91506123ef82612388565b604082019050919050565b60006020820190508181036000830152612413816123d7565b9050919050565b7f4552433732313a2063616c6c6572206973206e6f7420746f6b656e206f776e6560008201527f72206f7220617070726f76656400000000000000000000000000000000000000602082015250565b6000612476602d83611cb9565b91506124818261241a565b604082019050919050565b600060208201905081810360008301526124a581612469565b9050919050565b7f4552433732313a20696e76616c696420746f6b656e2049440000000000000000600082015250565b60006124e2601883611cb9565b91506124ed826124ac565b602082019050919050565b60006020820190508181036000830152612511816124d5565b9050919050565b7f4552433732313a2061646472657373207a65726f206973206e6f74206120766160008201527f6c6964206f776e65720000000000000000000000000000000000000000000000602082015250565b6000612574602983611cb9565b915061257f82612518565b604082019050919050565b600060208201905081810360008301526125a381612567565b9050919050565b7f4f776e61626c653a206e6577206f776e657220697320746865207a65726f206160008201527f6464726573730000000000000000000000000000000000000000000000000000602082015250565b6000612606602683611cb9565b9150612611826125aa565b604082019050919050565b60006020820190508181036000830152612635816125f9565b9050919050565b7f4552433732313a207472616e736665722066726f6d20696e636f72726563742060008201527f6f776e6572000000000000000000000000000000000000000000000000000000602082015250565b6000612698602583611cb9565b91506126a38261263c565b604082019050919050565b600060208201905081810360008301526126c78161268b565b9050919050565b7f4552433732313a207472616e7366657220746f20746865207a65726f2061646460008201527f7265737300000000000000000000000000000000000000000000000000000000602082015250565b600061272a602483611cb9565b9150612735826126ce565b604082019050919050565b600060208201905081810360008301526127598161271d565b9050919050565b7f4f776e61626c653a2063616c6c6572206973206e6f7420746865206f776e6572600082015250565b6000612796602083611cb9565b91506127a182612760565b602082019050919050565b600060208201905081810360008301526127c581612789565b9050919050565b7f4552433732313a20617070726f766520746f2063616c6c657200000000000000600082015250565b6000612802601983611cb9565b915061280d826127cc565b602082019050919050565b60006020820190508181036000830152612831816127f5565b9050919050565b7f4552433732313a207472616e7366657220746f206e6f6e20455243373231526560008201527f63656976657220696d706c656d656e7465720000000000000000000000000000602082015250565b6000612894603283611cb9565b915061289f82612838565b604082019050919050565b600060208201905081810360008301526128c381612887565b9050919050565b600081905092915050565b60006128e082611cae565b6128ea81856128ca565b93506128fa818560208601611cca565b80840191505092915050565b600061291282856128d5565b915061291e82846128d5565b91508190509392505050565b7f45524337323155524953746f726167653a2055524920736574206f66206e6f6e60008201527f6578697374656e7420746f6b656e000000000000000000000000000000000000602082015250565b6000612986602e83611cb9565b91506129918261292a565b604082019050919050565b600060208201905081810360008301526129b581612979565b9050919050565b60008190508160005260206000209050919050565b60006020601f8301049050919050565b600082821b905092915050565b600060088302612a1e7fffffffffffffffffffffffffffffffffffffffffffffffffffffffffffffffff826129e1565b612a2886836129e1565b95508019841693508086168417925050509392505050565b6000819050919050565b6000612a65612a60612a5b84611d60565b612a40565b611d60565b9050919050565b6000819050919050565b612a7f83612a4a565b612a93612a8b82612a6c565b8484546129ee565b825550505050565b600090565b612aa8612a9b565b612ab3818484612a76565b505050565b5b81811015612ad757612acc600082612aa0565b600181019050612ab9565b5050565b601f821115612b1c57612aed816129bc565b612af6846129d1565b81016020851015612b05578190505b612b19612b11856129d1565b830182612ab8565b50505b505050565b600082821c905092915050565b6000612b3f60001984600802612b21565b1980831691505092915050565b6000612b588383612b2e565b9150826002028217905092915050565b612b7182611cae565b67ffffffffffffffff811115612b8a57612b89611fab565b5b612b9482546122c5565b612b9f828285612adb565b600060209050601f831160018114612bd25760008415612bc0578287015190505b612bca8582612b4c565b865550612c32565b601f198416612be0866129bc565b60005b82811015612c0857848901518255600182019150602085019450602081019050612be3565b86831015612c255784890151612c21601f891682612b2e565b8355505b6001600288020188555050505b505050505050565b600081519050919050565b600082825260208201905092915050565b6000612c6182612c3a565b612c6b8185612c45565b9350612c7b818560208601611cca565b612c8481611cf4565b840191505092915050565b6000608082019050612ca46000830187611df5565b612cb16020830186611df5565b612cbe6040830185611e8b565b8181036060830152612cd08184612c56565b905095945050505050565b600081519050612cea81611c1f565b92915050565b600060208284031215612d0657612d05611be9565b5b6000612d1484828501612cdb565b91505092915050565b7f4e487b7100000000000000000000000000000000000000000000000000000000600052601260045260246000fd5b7f4552433732313a206d696e7420746f20746865207a65726f2061646472657373600082015250565b6000612d82602083611cb9565b9150612d8d82612d4c565b602082019050919050565b60006020820190508181036000830152612db181612d75565b9050919050565b7f4552433732313a20746f6b656e20616c7265616479206d696e74656400000000600082015250565b6000612dee601c83611cb9565b9150612df982612db8565b602082019050919050565b60006020820190508181036000830152612e1d81612de1565b905091905056fea26469706673582212203c62ebda77cc47426b7da069f55cdfb4eceaacb2b4c6d19dba8b570a934914ee64736f6c63430008120033",
  "linkReferences": {},
  "deployedLinkReferences": {}
}