{
  "_format": "hh-sol-artifact-1",
  "contractName": "Bhoomi",
  "sourceName": "contracts/Bhoomi.sol",
  "abi": [
    {
      "inputs": [
        {
          "internalType": "uint256",
          "name": "_fee",
          "type": "uint256"
        },
        {
          "internalType": "uint256",
          "name": "_stakeFee",
          "type": "uint256"
        },
        {
          "internalType": "contract BMToken",
          "name": "_token",
          "type": "address"
        },
        {
          "internalType": "uint256",
          "name": "_valueOfToken",
          "type": "uint256"
        },
        {
          "internalType": "contract NFTmint",
          "name": "_nftMint",
          "type": "address"
        },
        {
          "internalType": "contract BMToken1155",
          "name": "_nftMint1155",
          "type": "address"
        }
      ],
      "stateMutability": "nonpayable",
      "type": "constructor"
    },
    {
      "anonymous": false,
      "inputs": [
        {
          "indexed": true,
          "internalType": "address",
          "name": "_to",
          "type": "address"
        },
        {
          "indexed": false,
          "internalType": "uint256",
          "name": "_id",
          "type": "uint256"
        }
      ],
      "name": "NFTMINTED",
      "type": "event"
    },
    {
      "anonymous": false,
      "inputs": [
        {
          "indexed": true,
          "internalType": "address",
          "name": "_to",
          "type": "address"
        },
        {
          "indexed": false,
          "internalType": "uint256",
          "name": "_id",
          "type": "uint256"
        },
        {
          "indexed": false,
          "internalType": "uint256",
          "name": "_amt",
          "type": "uint256"
        }
      ],
      "name": "NFTMINTED1155",
      "type": "event"
    },
    {
      "anonymous": false,
      "inputs": [
        {
          "indexed": true,
          "internalType": "address",
          "name": "_from",
          "type": "address"
        },
        {
          "indexed": false,
          "internalType": "string",
          "name": "_name",
          "type": "string"
        },
        {
          "indexed": false,
          "internalType": "string",
          "name": "_uri",
          "type": "string"
        },
        {
          "indexed": false,
          "internalType": "uint256",
          "name": "_reqID",
          "type": "uint256"
        }
      ],
      "name": "ReqFile",
      "type": "event"
    },
    {
      "anonymous": false,
      "inputs": [
        {
          "indexed": true,
          "internalType": "address",
          "name": "own",
          "type": "address"
        },
        {
          "indexed": false,
          "internalType": "uint256",
          "name": "_id",
          "type": "uint256"
        },
        {
          "indexed": false,
          "internalType": "uint256",
          "name": "_percentage",
          "type": "uint256"
        }
      ],
      "name": "RequestOWN",
      "type": "event"
    },
    {
      "anonymous": false,
      "inputs": [
        {
          "indexed": true,
          "internalType": "address",
          "name": "_from",
          "type": "address"
        },
        {
          "indexed": false,
          "internalType": "uint256",
          "name": "_id",
          "type": "uint256"
        },
        {
          "indexed": false,
          "internalType": "uint256",
          "name": "_amt",
          "type": "uint256"
        }
      ],
      "name": "RequestToBUY",
      "type": "event"
    },
    {
      "inputs": [],
      "name": "bmToken",
      "outputs": [
        {
          "internalType": "contract BMToken",
          "name": "",
          "type": "address"
        }
      ],
      "stateMutability": "view",
      "type": "function"
    },
    {
      "inputs": [
        {
          "internalType": "uint256",
          "name": "_amtOftoken",
          "type": "uint256"
        }
      ],
      "name": "buyFundToken",
      "outputs": [
        {
          "internalType": "bool",
          "name": "",
          "type": "bool"
        }
      ],
      "stateMutability": "payable",
      "type": "function"
    },
    {
      "inputs": [],
      "name": "chargeFee",
      "outputs": [
        {
          "internalType": "uint256",
          "name": "",
          "type": "uint256"
        }
      ],
      "stateMutability": "view",
      "type": "function"
    },
    {
      "inputs": [
        {
          "internalType": "uint256",
          "name": "_reqId",
          "type": "uint256"
        }
      ],
      "name": "claimStake",
      "outputs": [],
      "stateMutability": "nonpayable",
      "type": "function"
    },
    {
      "inputs": [],
      "name": "contAdd",
      "outputs": [
        {
          "internalType": "address",
          "name": "",
          "type": "address"
        }
      ],
      "stateMutability": "view",
      "type": "function"
    },
    {
      "inputs": [
        {
          "internalType": "uint256",
          "name": "_reqId",
          "type": "uint256"
        }
      ],
      "name": "endRequest",
      "outputs": [
        {
          "internalType": "bool",
          "name": "res",
          "type": "bool"
        }
      ],
      "stateMutability": "nonpayable",
      "type": "function"
    },
    {
      "inputs": [
        {
          "internalType": "address",
          "name": "user",
          "type": "address"
        }
      ],
      "name": "getStake",
      "outputs": [
        {
          "internalType": "uint256",
          "name": "",
          "type": "uint256"
        }
      ],
      "stateMutability": "view",
      "type": "function"
    },
    {
      "inputs": [],
      "name": "nftMint",
      "outputs": [
        {
          "internalType": "contract NFTmint",
          "name": "",
          "type": "address"
        }
      ],
      "stateMutability": "view",
      "type": "function"
    },
    {
      "inputs": [],
      "name": "nftMint1155",
      "outputs": [
        {
          "internalType": "contract BMToken1155",
          "name": "",
          "type": "address"
        }
      ],
      "stateMutability": "view",
      "type": "function"
    },
    {
      "inputs": [],
      "name": "noOfValidators",
      "outputs": [
        {
          "internalType": "uint256",
          "name": "",
          "type": "uint256"
        }
      ],
      "stateMutability": "view",
      "type": "function"
    },
    {
      "inputs": [],
      "name": "owneradd",
      "outputs": [
        {
          "internalType": "address",
          "name": "",
          "type": "address"
        }
      ],
      "stateMutability": "view",
      "type": "function"
    },
    {
      "inputs": [
        {
          "internalType": "string",
          "name": "_uri",
          "type": "string"
        },
        {
          "internalType": "string",
          "name": "_name",
          "type": "string"
        }
      ],
      "name": "proposeRequest",
      "outputs": [],
      "stateMutability": "nonpayable",
      "type": "function"
    },
    {
      "inputs": [
        {
          "internalType": "uint256",
          "name": "_reqId",
          "type": "uint256"
        },
        {
          "internalType": "uint256",
          "name": "_amt",
          "type": "uint256"
        }
      ],
      "name": "requestToBuy",
      "outputs": [],
      "stateMutability": "nonpayable",
      "type": "function"
    },
    {
      "inputs": [
        {
          "internalType": "uint256",
          "name": "",
          "type": "uint256"
        }
      ],
      "name": "requests",
      "outputs": [
        {
          "internalType": "uint256",
          "name": "reqID",
          "type": "uint256"
        },
        {
          "internalType": "address",
          "name": "from",
          "type": "address"
        },
        {
          "internalType": "string",
          "name": "name_req_for_owner",
          "type": "string"
        },
        {
          "internalType": "string",
          "name": "uri",
          "type": "string"
        },
        {
          "internalType": "enum Bhoomi.Status",
          "name": "status",
          "type": "uint8"
        },
        {
          "internalType": "bool",
          "name": "final_decision",
          "type": "bool"
        },
        {
          "internalType": "uint256",
          "name": "finalisedAt",
          "type": "uint256"
        },
        {
          "internalType": "uint256",
          "name": "totalWinningVotes",
          "type": "uint256"
        }
      ],
      "stateMutability": "view",
      "type": "function"
    },
    {
      "inputs": [
        {
          "internalType": "uint256",
          "name": "",
          "type": "uint256"
        },
        {
          "internalType": "uint256",
          "name": "",
          "type": "uint256"
        }
      ],
      "name": "requestsBuy",
      "outputs": [
        {
          "internalType": "uint256",
          "name": "reqID",
          "type": "uint256"
        },
        {
          "internalType": "address",
          "name": "from",
          "type": "address"
        },
        {
          "internalType": "uint256",
          "name": "amt",
          "type": "uint256"
        },
        {
          "internalType": "enum Bhoomi.StatusBuy",
          "name": "status",
          "type": "uint8"
        },
        {
          "internalType": "address",
          "name": "land_owner",
          "type": "address"
        },
        {
          "internalType": "uint256",
          "name": "percentage_owner",
          "type": "uint256"
        }
      ],
      "stateMutability": "view",
      "type": "function"
    },
    {
      "inputs": [
        {
          "internalType": "uint256",
          "name": "_reqId",
          "type": "uint256"
        },
        {
          "internalType": "uint256",
          "name": "_buyId",
          "type": "uint256"
        },
        {
          "internalType": "bool",
          "name": "result",
          "type": "bool"
        }
      ],
      "name": "respondBuy",
      "outputs": [],
      "stateMutability": "nonpayable",
      "type": "function"
    },
    {
      "inputs": [
        {
          "internalType": "uint256",
          "name": "_reqId",
          "type": "uint256"
        },
        {
          "internalType": "uint256",
          "name": "_buyId",
          "type": "uint256"
        },
        {
          "internalType": "uint256",
          "name": "_percentageOffer",
          "type": "uint256"
        }
      ],
      "name": "respondOwn",
      "outputs": [],
      "stateMutability": "nonpayable",
      "type": "function"
    },
    {
      "inputs": [
        {
          "internalType": "uint256",
          "name": "stakeAmt",
          "type": "uint256"
        }
      ],
      "name": "stake",
      "outputs": [],
      "stateMutability": "nonpayable",
      "type": "function"
    },
    {
      "inputs": [],
      "name": "stakeFee",
      "outputs": [
        {
          "internalType": "uint256",
          "name": "",
          "type": "uint256"
        }
      ],
      "stateMutability": "view",
      "type": "function"
    },
    {
      "inputs": [
        {
          "internalType": "address",
          "name": "",
          "type": "address"
        }
      ],
      "name": "stakeHolders",
      "outputs": [
        {
          "internalType": "uint256",
          "name": "",
          "type": "uint256"
        }
      ],
      "stateMutability": "view",
      "type": "function"
    },
    {
      "inputs": [],
      "name": "totalStaked",
      "outputs": [
        {
          "internalType": "uint256",
          "name": "",
          "type": "uint256"
        }
      ],
      "stateMutability": "view",
      "type": "function"
    },
    {
      "inputs": [
        {
          "internalType": "address",
          "name": "",
          "type": "address"
        }
      ],
      "name": "validators",
      "outputs": [
        {
          "internalType": "bool",
          "name": "",
          "type": "bool"
        }
      ],
      "stateMutability": "view",
      "type": "function"
    },
    {
      "inputs": [],
      "name": "valueTobuyToken",
      "outputs": [
        {
          "internalType": "uint256",
          "name": "",
          "type": "uint256"
        }
      ],
      "stateMutability": "view",
      "type": "function"
    },
    {
      "inputs": [
        {
          "internalType": "uint256",
          "name": "",
          "type": "uint256"
        },
        {
          "internalType": "uint256",
          "name": "",
          "type": "uint256"
        }
      ],
      "name": "votemap",
      "outputs": [
        {
          "internalType": "address",
          "name": "validator",
          "type": "address"
        },
        {
          "internalType": "bool",
          "name": "option",
          "type": "bool"
        }
      ],
      "stateMutability": "view",
      "type": "function"
    },
    {
      "inputs": [
        {
          "internalType": "uint256",
          "name": "_reqId",
          "type": "uint256"
        },
        {
          "internalType": "bool",
          "name": "option",
          "type": "bool"
        }
      ],
      "name": "voting",
      "outputs": [],
      "stateMutability": "nonpayable",
      "type": "function"
    },
    {
      "inputs": [],
      "name": "withdrawStake",
      "outputs": [],
      "stateMutability": "nonpayable",
      "type": "function"
    }
  ],
  "bytecode": "0x608060405260006005556000600a553480156200001b57600080fd5b5060405162002804380380620028048339810160408190526200003e91620000c3565b600160008190558054336001600160a01b03199182161790915560028054309083161790556003969096556004949094556006805486166001600160a01b0394851617905560078054861691841691909117905560088054909416919092161790915560095562000133565b6001600160a01b0381168114620000c057600080fd5b50565b60008060008060008060c08789031215620000dd57600080fd5b86519550602087015194506040870151620000f881620000aa565b6060880151608089015191955093506200011281620000aa565b60a08801519092506200012581620000aa565b809150509295509295509295565b6126c180620001436000396000f3fe6080604052600436106101815760003560e01c80637f089e27116100d1578063bed9d8611161008a578063f0cadfc011610064578063f0cadfc0146104a1578063fa52c7d8146104c1578063fbb27e5c146104f1578063fe02a1f61461051157600080fd5b8063bed9d8611461043f578063c868f9e814610454578063e26ff10a1461047457600080fd5b80637f089e2714610351578063817b1cd21461036457806381d12c581461037a57806386e7d64a146103ae578063a694fc3a146103e0578063bb77a3251461040057600080fd5b80633e814b341161013e578063719414b411610118578063719414b4146102cf578063744c8c09146102ef5780637a33c398146103055780637a7664601461031b57600080fd5b80633e814b341461026f57806344c7d6ef1461028f5780635a4f459a146102af57600080fd5b806303c35d1e1461018657806317f44048146101c35780631b69016f146101f3578063222c97771461021557806323954e85146102395780633e4fd7f21461024f575b600080fd5b34801561019257600080fd5b506006546101a6906001600160a01b031681565b6040516001600160a01b0390911681526020015b60405180910390f35b3480156101cf57600080fd5b506101e36101de366004611f5c565b610531565b60405190151581526020016101ba565b3480156101ff57600080fd5b5061021361020e366004611f86565b610bd0565b005b34801561022157600080fd5b5061022b60045481565b6040519081526020016101ba565b34801561024557600080fd5b5061022b60095481565b34801561025b57600080fd5b5061021361026a366004611fbf565b610f2f565b34801561027b57600080fd5b506002546101a6906001600160a01b031681565b34801561029b57600080fd5b506102136102aa366004611f5c565b6110f0565b3480156102bb57600080fd5b506102136102ca366004611feb565b611308565b3480156102db57600080fd5b506007546101a6906001600160a01b031681565b3480156102fb57600080fd5b5061022b60035481565b34801561031157600080fd5b5061022b600a5481565b34801561032757600080fd5b5061022b61033636600461201b565b6001600160a01b03166000908152600f602052604090205490565b6101e361035f366004611f5c565b611518565b34801561037057600080fd5b5061022b60055481565b34801561038657600080fd5b5061039a610395366004611f5c565b6116d3565b6040516101ba9897969594939291906120a7565b3480156103ba57600080fd5b506103ce6103c936600461211f565b611837565b6040516101ba96959493929190612141565b3480156103ec57600080fd5b506102136103fb366004611f5c565b61189d565b34801561040c57600080fd5b5061042061041b36600461211f565b611a4e565b604080516001600160a01b0390931683529015156020830152016101ba565b34801561044b57600080fd5b50610213611a91565b34801561046057600080fd5b5061021361046f366004612233565b611b97565b34801561048057600080fd5b5061022b61048f36600461201b565b600f6020526000908152604090205481565b3480156104ad57600080fd5b506001546101a6906001600160a01b031681565b3480156104cd57600080fd5b506101e36104dc36600461201b565b600e6020526000908152604090205460ff1681565b3480156104fd57600080fd5b5061021361050c36600461211f565b611d16565b34801561051d57600080fd5b506008546101a6906001600160a01b031681565b6000818152600c60205260408120600901544210156105895760405162461bcd60e51b815260206004820152600f60248201526e1d9bdd1a5b99c8199a5b9a5cda1959608a1b60448201526064015b60405180910390fd5b6000828152600c602052604081206004015460ff1660028111156105af576105af612091565b146106065760405162461bcd60e51b815260206004820152602160248201527f7265717565737420617070726f7665642f72656a656374656420616c726561646044820152607960f81b6064820152608401610580565b6000806000805b60008681526010602052604090205481101561069457600086815260106020526040902080548290811061064357610643612297565b600091825260209091200154600160a01b900460ff161515600103610674578361066c816122c3565b945050610682565b8261067e816122c3565b9350505b8061068c816122c3565b91505061060d565b506064600a5460466106a691906122dc565b6106b091906122f9565b6106ba838561231b565b10156107085760405162461bcd60e51b815260206004820152601960248201527f4e4f5420656e6f75676820766f7465732068617070656e6564000000000000006044820152606401610580565b8183111561074d57506000848152600c60205260409020600481018054600160ff199182168117909255600a8301859055600890920180549092168117909155610782565b506000848152600c6020526040812060048101805460ff19908116600217909155600a82018490556008909101805490911690555b60005b6000868152601060205260409020548110156108cc57600086815260106020526040902080548315159190839081106107c0576107c0612297565b600091825260209091200154600160a01b900460ff1615151461084d576000868152600c602081815260408084206010909252909220805492909101918390811061080d5761080d612297565b60009182526020808320909101548354600181018555938352912090910180546001600160a01b0319166001600160a01b039092169190911790556108ba565b6000868152600c6020908152604080832060109092529091208054600b909201918390811061087e5761087e612297565b60009182526020808320909101548354600181018555938352912090910180546001600160a01b0319166001600160a01b039092169190911790555b806108c4816122c3565b915050610785565b5060005b6000868152600c602081905260409091200154811015610acf57600a600f6000600c60008a8152602001908152602001600020600c01848154811061091757610917612297565b60009182526020808320909101546001600160a01b0316835282019290925260400190205461094691906122f9565b600f6000600c60008a8152602001908152602001600020600c01848154811061097157610971612297565b60009182526020808320909101546001600160a01b03168352820192909252604001812080549091906109a590849061232e565b90915550506006546000878152600c602081905260409091200180546001600160a01b03909216916379cc67909190849081106109e4576109e4612297565b9060005260206000200160009054906101000a90046001600160a01b0316600a600f6000600c60008d8152602001908152602001600020600c018781548110610a2f57610a2f612297565b60009182526020808320909101546001600160a01b03168352820192909252604001902054610a5e91906122f9565b6040516001600160e01b031960e085901b1681526001600160a01b0390921660048301526024820152604401600060405180830381600087803b158015610aa457600080fd5b505af1158015610ab8573d6000803e3d6000fd5b505050508080610ac7906122c3565b9150506108d0565b506000858152600c60205260409020426009909101558015610bc5576007546000868152600c60205260409081902060018101549151636902622f60e11b81526001600160a01b039384169363d204c45e93610b369391169160039091019060040161237b565b600060405180830381600087803b158015610b5057600080fd5b505af1158015610b64573d6000803e3d6000fd5b5050506000868152600c60209081526040918290206001015491518881526001600160a01b0390921692507fbf2e6b97e061c41fa0eef5e69b4cf23bc9681baf5efea51b98fac4b048427eca910160405180910390a2506001949350505050565b506000949350505050565b6000838152600d60205260409020805483908110610bf057610bf0612297565b60009182526020909120600590910201600101546001600160a01b03163314610c5b5760405162461bcd60e51b815260206004820181905260248201527f796f7520617265206e6f7420746865206f776e6572206f6620726571756573746044820152606401610580565b60016000848152600d60205260409020805484908110610c7d57610c7d612297565b60009182526020909120600360059092020181015460ff1690811115610ca557610ca5612091565b14610caf57600080fd5b8015610f06576006546000848152600d6020526040902080546001600160a01b03909216916323b872dd91339186908110610cec57610cec612297565b600091825260209091206005909102016003015461010090046001600160a01b0316610d1a6012600a6124fa565b6000888152600d60205260409020805488908110610d3a57610d3a612297565b906000526020600020906005020160020154610d5691906122dc565b6040518463ffffffff1660e01b8152600401610d7493929190612506565b6020604051808303816000875af1158015610d93573d6000803e3d6000fd5b505050506040513d601f19601f82011682018060405250810190610db7919061252a565b506008546000848152600d6020526040902080546001600160a01b039092169163156e29f6919085908110610dee57610dee612297565b6000918252602090912060016005909202018101546040516001600160e01b031960e085901b1681526001600160a01b039091166004820152602481018790526044810191909152606401600060405180830381600087803b158015610e5357600080fd5b505af1158015610e67573d6000803e3d6000fd5b505060408051868152600160208201523393507f32860b88544cfbb4aa893f9c833dc3d17f33ddf8a4d910a5264a6014fbf32d5392500160405180910390a26000838152600d6020526040902080546003919084908110610eca57610eca612297565b906000526020600020906005020160030160006101000a81548160ff02191690836003811115610efc57610efc612091565b0217905550505050565b6000838152600d6020526040902080546002919084908110610eca57610eca612297565b505050565b6000838152600c60205260409020600101546001600160a01b03163314610f985760405162461bcd60e51b815260206004820152601f60248201527f4f6e6c79206f776e6572206f66204e46542063616e2063616c6c2074686973006044820152606401610580565b6000838152600d602052604090205482108015610fb3575060015b610ff35760405162461bcd60e51b8152602060048201526011602482015270139bdd0818481d985b1a5908189d5e5259607a1b6044820152606401610580565b6000811180156110035750606481105b61104f5760405162461bcd60e51b815260206004820152601a60248201527f496e76616c69642070657263656e74616765206f6666657265640000000000006044820152606401610580565b6000838152600d6020526040812080548490811061106f5761106f612297565b6000918252602091829020600590910201600481018490556003810180546001600160a81b03191660ff19336101008102919091169190911760011790915560408051888152938401869052919350917f15b49c7eaa14034f029963f4616614ccfa32c953f2b135913edb0fcaa74f1134910160405180910390a250505050565b6000818152600c602052604081206004015460ff16600281111561111657611116612091565b0361116e5760405162461bcd60e51b815260206004820152602260248201527f72657175657374207374696c6c2076616974696e6720666f7220617070726f76604482015261185b60f21b6064820152608401610580565b6000818152600c6020908152604080832033845260060190915281205490036111c95760405162461bcd60e51b815260206004820152600d60248201526c1e5bdd481b9bdd081d9bdd1959609a1b6044820152606401610580565b6000818152600c6020908152604080832033845260070190915290205460ff16156112285760405162461bcd60e51b815260206004820152600f60248201526e185b1c9958591e4818db185a5b5959608a1b6044820152606401610580565b6000818152600c60205260408120600b015490816112486012600a6124fa565b60035461125591906122dc565b61125f91906122f9565b6006546001546040516323b872dd60e01b81529293506001600160a01b03918216926323b872dd9261129992169033908690600401612506565b6020604051808303816000875af11580156112b8573d6000803e3d6000fd5b505050506040513d601f19601f820116820180604052508101906112dc919061252a565b5050506000908152600c602090815260408083203384526007019091529020805460ff19166001179055565b336000908152600e602052604090205460ff1615156001146113625760405162461bcd60e51b81526020600482015260136024820152723cb7ba9030b932903737ba1030903b37ba32b960691b6044820152606401610580565b6000828152600c60209081526040808320338452600601909152902054156113c05760405162461bcd60e51b81526020600482015260116024820152701e5bdd48185b1c9958591e481d9bdd1959607a1b6044820152606401610580565b6000828152600c6020526040812090600482015460ff1660028111156113e8576113e8612091565b146114355760405162461bcd60e51b815260206004820152601e60248201527f6361736520617070726f7665642f72656a656374656420616c726561647900006044820152606401610580565b428160090154106114775760405162461bcd60e51b815260206004820152600c60248201526b18d85cd948195e1c1a5c995960a21b6044820152606401610580565b81151560010361149b573360009081526006820160205260409020600190556114b1565b3360009081526006820160205260409020600290555b50604080518082018252338152911515602080840191825260009485526010815291842080546001810182559085529190932091519101805492511515600160a01b026001600160a81b03199093166001600160a01b039290921691909117919091179055565b6000611522611f03565b6000821161157d5760405162461bcd60e51b815260206004820152602260248201527f726571756972656420616d6f756e742073686f756c6420626520706f73697469604482015261766560f01b6064820152608401610580565b60095461158a90836122dc565b3410156115d95760405162461bcd60e51b815260206004820152601760248201527f6e6f74206861766520656e6f7567682062616c616e63650000000000000000006044820152606401610580565b6006546001546001600160a01b03918216916323b872dd9116336115ff6012600a6124fa565b61160990876122dc565b6040518463ffffffff1660e01b815260040161162793929190612506565b6020604051808303816000875af1158015611646573d6000803e3d6000fd5b505050506040513d601f19601f8201168201806040525081019061166a919061252a565b5060006009548361167b91906122dc565b611685903461232e565b905080156116bf576040513390819083156108fc029084906000818181858888f193505050501580156116bc573d6000803e3d6000fd5b50505b60019150506116ce6001600055565b919050565b600c6020526000908152604090208054600182015460028301805492936001600160a01b039092169261170590612341565b80601f016020809104026020016040519081016040528092919081815260200182805461173190612341565b801561177e5780601f106117535761010080835404028352916020019161177e565b820191906000526020600020905b81548152906001019060200180831161176157829003601f168201915b50505050509080600301805461179390612341565b80601f01602080910402602001604051908101604052809291908181526020018280546117bf90612341565b801561180c5780601f106117e15761010080835404028352916020019161180c565b820191906000526020600020905b8154815290600101906020018083116117ef57829003601f168201915b50505050600483015460088401546009850154600a90950154939460ff928316949290911692509088565b600d602052816000526040600020818154811061185357600080fd5b6000918252602090912060059091020180546001820154600283015460038401546004909401549295506001600160a01b0391821694509260ff8116926101009091049091169086565b336000908152600e602052604090205460ff16156118ef5760405162461bcd60e51b815260206004820152600f60248201526e30b63932b0b23c9030903b37ba32b960891b6044820152606401610580565b6004548110156119415760405162461bcd60e51b815260206004820152601960248201527f7374616b696e6720616d74206973206e6f7420656e6f756768000000000000006044820152606401610580565b6006546001546001600160a01b03918216916323b872dd913391166119686012600a6124fa565b61197290866122dc565b6040518463ffffffff1660e01b815260040161199093929190612506565b6020604051808303816000875af11580156119af573d6000803e3d6000fd5b505050506040513d601f19601f820116820180604052508101906119d3919061252a565b506119e06012600a6124fa565b6119ea90826122dc565b6005546119f7919061231b565b600555611a066012600a6124fa565b611a1090826122dc565b336000908152600f6020908152604080832093909355600e9052908120805460ff19166001179055600a805491611a46836122c3565b919050555050565b60106020528160005260406000208181548110611a6a57600080fd5b6000918252602090912001546001600160a01b0381169250600160a01b900460ff16905082565b336000908152600e602052604090205460ff16611ae65760405162461bcd60e51b81526020600482015260136024820152723cb7ba9030b932903737ba1030903b37ba32b960691b6044820152606401610580565b600654600154336000818152600f6020526040908190205490516323b872dd60e01b81526001600160a01b03948516946323b872dd94611b2d949116929091600401612506565b6020604051808303816000875af1158015611b4c573d6000803e3d6000fd5b505050506040513d601f19601f82011682018060405250810190611b70919061252a565b50336000908152600f60209081526040808320839055600e9091529020805460ff19169055565b611b9f611f03565b6006546001546001600160a01b03918216916323b872dd91339116611bc66012600a6124fa565b600354611bd391906122dc565b6040518463ffffffff1660e01b8152600401611bf193929190612506565b6020604051808303816000875af1158015611c10573d6000803e3d6000fd5b505050506040513d601f19601f82011682018060405250810190611c34919061252a565b50611c43600b80546001019055565b6000600c6000611c52600b5490565b81526020019081526020016000209050611c6b600b5490565b81556001810180546001600160a01b0319163317905560028101611c8f8382612595565b5060038101611c9e8482612595565b5060048101805460ff199081169091556008820180549091169055600060098201819055600a820155600b5460405133917f21db811397880d6ec73e47c51b9bda166cd7e8d3201ae52938a8600dde3e3a1991611cff918691889190612655565b60405180910390a250611d126001600055565b5050565b60016000838152600c602052604090206004015460ff166002811115611d3e57611d3e612091565b14611d8b5760405162461bcd60e51b815260206004820152601d60248201527f72657175657374206e6f7420617070726f7665642f72656a65637465640000006044820152606401610580565b60008111611ddb5760405162461bcd60e51b815260206004820152601960248201527f416d6f756e742063616e6e6f74206265206e65676174697665000000000000006044820152606401610580565b6040805160c0810182526000606082018181526080830182905260a08301829052858352336020808501918252848601878152888552600d8252958420805460018082018355918652919094208551600590920201908155905181840180546001600160a01b0319166001600160a01b03909216919091179055935160028501555160038085018054949586959094919260ff1990911691908490811115611e8557611e85612091565b021790555060808201516003820180546001600160a01b0390921661010002610100600160a81b031990921691909117905560a090910151600490910155604080518481526020810184905233917fc6b4a6c7a76410797753f3d24f37e0132689790a958a7c7e7cb257d29fa8b2a8910160405180910390a2505050565b600260005403611f555760405162461bcd60e51b815260206004820152601f60248201527f5265656e7472616e637947756172643a207265656e7472616e742063616c6c006044820152606401610580565b6002600055565b600060208284031215611f6e57600080fd5b5035919050565b8015158114611f8357600080fd5b50565b600080600060608486031215611f9b57600080fd5b83359250602084013591506040840135611fb481611f75565b809150509250925092565b600080600060608486031215611fd457600080fd5b505081359360208301359350604090920135919050565b60008060408385031215611ffe57600080fd5b82359150602083013561201081611f75565b809150509250929050565b60006020828403121561202d57600080fd5b81356001600160a01b038116811461204457600080fd5b9392505050565b6000815180845260005b8181101561207157602081850181015186830182015201612055565b506000602082860101526020601f19601f83011685010191505092915050565b634e487b7160e01b600052602160045260246000fd5b8881526001600160a01b0388166020820152610100604082018190526000906120d28382018a61204b565b905082810360608401526120e6818961204b565b915050600386106120f9576120f9612091565b608082019590955292151560a084015260c083019190915260e090910152949350505050565b6000806040838503121561213257600080fd5b50508035926020909101359150565b8681526001600160a01b0386811660208301526040820186905260c08201906004861061217057612170612091565b8560608401528085166080840152508260a0830152979650505050505050565b634e487b7160e01b600052604160045260246000fd5b600082601f8301126121b757600080fd5b813567ffffffffffffffff808211156121d2576121d2612190565b604051601f8301601f19908116603f011681019082821181831017156121fa576121fa612190565b8160405283815286602085880101111561221357600080fd5b836020870160208301376000602085830101528094505050505092915050565b6000806040838503121561224657600080fd5b823567ffffffffffffffff8082111561225e57600080fd5b61226a868387016121a6565b9350602085013591508082111561228057600080fd5b5061228d858286016121a6565b9150509250929050565b634e487b7160e01b600052603260045260246000fd5b634e487b7160e01b600052601160045260246000fd5b6000600182016122d5576122d56122ad565b5060010190565b80820281158282048414176122f3576122f36122ad565b92915050565b60008261231657634e487b7160e01b600052601260045260246000fd5b500490565b808201808211156122f3576122f36122ad565b818103818111156122f3576122f36122ad565b600181811c9082168061235557607f821691505b60208210810361237557634e487b7160e01b600052602260045260246000fd5b50919050565b60018060a01b0383168152600060206040818401526000845461239d81612341565b80604087015260606001808416600081146123bf57600181146123d957612407565b60ff1985168984015283151560051b890183019550612407565b896000528660002060005b858110156123ff5781548b82018601529083019088016123e4565b8a0184019650505b50939998505050505050505050565b600181815b80851115612451578160001904821115612437576124376122ad565b8085161561244457918102915b93841c939080029061241b565b509250929050565b600082612468575060016122f3565b81612475575060006122f3565b816001811461248b5760028114612495576124b1565b60019150506122f3565b60ff8411156124a6576124a66122ad565b50506001821b6122f3565b5060208310610133831016604e8410600b84101617156124d4575081810a6122f3565b6124de8383612416565b80600019048211156124f2576124f26122ad565b029392505050565b60006120448383612459565b6001600160a01b039384168152919092166020820152604081019190915260600190565b60006020828403121561253c57600080fd5b815161204481611f75565b601f821115610f2a57600081815260208120601f850160051c8101602086101561256e5750805b601f850160051c820191505b8181101561258d5782815560010161257a565b505050505050565b815167ffffffffffffffff8111156125af576125af612190565b6125c3816125bd8454612341565b84612547565b602080601f8311600181146125f857600084156125e05750858301515b600019600386901b1c1916600185901b17855561258d565b600085815260208120601f198616915b8281101561262757888601518255948401946001909101908401612608565b50858210156126455787850151600019600388901b60f8161c191681555b5050505050600190811b01905550565b606081526000612668606083018661204b565b828103602084015261267a818661204b565b91505082604083015294935050505056fea26469706673582212202f31e7cd86ff670754be70b00790ce3bb1b3f7bc625442873ba65e0ecfa66beb64736f6c63430008120033",
  "linkReferences": {},
  "deployedLinkReferences": {}
}