{
  "_format": "hh-sol-artifact-1",
  "contractName": "BMToken1155",
  "sourceName": "contracts/BMToken1155.sol",
  "abi": [
    {
      "inputs": [],
      "stateMutability": "nonpayable",
      "type": "constructor"
    },
    {
      "anonymous": false,
      "inputs": [
        {
          "indexed": true,
          "internalType": "address",
          "name": "account",
          "type": "address"
        },
        {
          "indexed": true,
          "internalType": "address",
          "name": "operator",
          "type": "address"
        },
        {
          "indexed": false,
          "internalType": "bool",
          "name": "approved",
          "type": "bool"
        }
      ],
      "name": "ApprovalForAll",
      "type": "event"
    },
    {
      "anonymous": false,
      "inputs": [
        {
          "indexed": true,
          "internalType": "address",
          "name": "previousOwner",
          "type": "address"
        },
        {
          "indexed": true,
          "internalType": "address",
          "name": "newOwner",
          "type": "address"
        }
      ],
      "name": "OwnershipTransferred",
      "type": "event"
    },
    {
      "anonymous": false,
      "inputs": [
        {
          "indexed": true,
          "internalType": "address",
          "name": "operator",
          "type": "address"
        },
        {
          "indexed": true,
          "internalType": "address",
          "name": "from",
          "type": "address"
        },
        {
          "indexed": true,
          "internalType": "address",
          "name": "to",
          "type": "address"
        },
        {
          "indexed": false,
          "internalType": "uint256[]",
          "name": "ids",
          "type": "uint256[]"
        },
        {
          "indexed": false,
          "internalType": "uint256[]",
          "name": "values",
          "type": "uint256[]"
        }
      ],
      "name": "TransferBatch",
      "type": "event"
    },
    {
      "anonymous": false,
      "inputs": [
        {
          "indexed": true,
          "internalType": "address",
          "name": "operator",
          "type": "address"
        },
        {
          "indexed": true,
          "internalType": "address",
          "name": "from",
          "type": "address"
        },
        {
          "indexed": true,
          "internalType": "address",
          "name": "to",
          "type": "address"
        },
        {
          "indexed": false,
          "internalType": "uint256",
          "name": "id",
          "type": "uint256"
        },
        {
          "indexed": false,
          "internalType": "uint256",
          "name": "value",
          "type": "uint256"
        }
      ],
      "name": "TransferSingle",
      "type": "event"
    },
    {
      "anonymous": false,
      "inputs": [
        {
          "indexed": false,
          "internalType": "string",
          "name": "value",
          "type": "string"
        },
        {
          "indexed": true,
          "internalType": "uint256",
          "name": "id",
          "type": "uint256"
        }
      ],
      "name": "URI",
      "type": "event"
    },
    {
      "inputs": [
        {
          "internalType": "address",
          "name": "account",
          "type": "address"
        },
        {
          "internalType": "uint256",
          "name": "id",
          "type": "uint256"
        }
      ],
      "name": "balanceOf",
      "outputs": [
        {
          "internalType": "uint256",
          "name": "",
          "type": "uint256"
        }
      ],
      "stateMutability": "view",
      "type": "function"
    },
    {
      "inputs": [
        {
          "internalType": "address[]",
          "name": "accounts",
          "type": "address[]"
        },
        {
          "internalType": "uint256[]",
          "name": "ids",
          "type": "uint256[]"
        }
      ],
      "name": "balanceOfBatch",
      "outputs": [
        {
          "internalType": "uint256[]",
          "name": "",
          "type": "uint256[]"
        }
      ],
      "stateMutability": "view",
      "type": "function"
    },
    {
      "inputs": [
        {
          "internalType": "address",
          "name": "account",
          "type": "address"
        },
        {
          "internalType": "address",
          "name": "operator",
          "type": "address"
        }
      ],
      "name": "isApprovedForAll",
      "outputs": [
        {
          "internalType": "bool",
          "name": "",
          "type": "bool"
        }
      ],
      "stateMutability": "view",
      "type": "function"
    },
    {
      "inputs": [
        {
          "internalType": "address",
          "name": "to",
          "type": "address"
        },
        {
          "internalType": "uint256",
          "name": "id",
          "type": "uint256"
        },
        {
          "internalType": "uint256",
          "name": "amount",
          "type": "uint256"
        }
      ],
      "name": "mint",
      "outputs": [],
      "stateMutability": "nonpayable",
      "type": "function"
    },
    {
      "inputs": [],
      "name": "owner",
      "outputs": [
        {
          "internalType": "address",
          "name": "",
          "type": "address"
        }
      ],
      "stateMutability": "view",
      "type": "function"
    },
    {
      "inputs": [],
      "name": "renounceOwnership",
      "outputs": [],
      "stateMutability": "nonpayable",
      "type": "function"
    },
    {
      "inputs": [
        {
          "internalType": "address",
          "name": "from",
          "type": "address"
        },
        {
          "internalType": "address",
          "name": "to",
          "type": "address"
        },
        {
          "internalType": "uint256[]",
          "name": "ids",
          "type": "uint256[]"
        },
        {
          "internalType": "uint256[]",
          "name": "amounts",
          "type": "uint256[]"
        },
        {
          "internalType": "bytes",
          "name": "data",
          "type": "bytes"
        }
      ],
      "name": "safeBatchTransferFrom",
      "outputs": [],
      "stateMutability": "nonpayable",
      "type": "function"
    },
    {
      "inputs": [
        {
          "internalType": "address",
          "name": "from",
          "type": "address"
        },
        {
          "internalType": "address",
          "name": "to",
          "type": "address"
        },
        {
          "internalType": "uint256",
          "name": "id",
          "type": "uint256"
        },
        {
          "internalType": "uint256",
          "name": "amount",
          "type": "uint256"
        },
        {
          "internalType": "bytes",
          "name": "data",
          "type": "bytes"
        }
      ],
      "name": "safeTransferFrom",
      "outputs": [],
      "stateMutability": "nonpayable",
      "type": "function"
    },
    {
      "inputs": [
        {
          "internalType": "address",
          "name": "operator",
          "type": "address"
        },
        {
          "internalType": "bool",
          "name": "approved",
          "type": "bool"
        }
      ],
      "name": "setApprovalForAll",
      "outputs": [],
      "stateMutability": "nonpayable",
      "type": "function"
    },
    {
      "inputs": [
        {
          "internalType": "bytes4",
          "name": "interfaceId",
          "type": "bytes4"
        }
      ],
      "name": "supportsInterface",
      "outputs": [
        {
          "internalType": "bool",
          "name": "",
          "type": "bool"
        }
      ],
      "stateMutability": "view",
      "type": "function"
    },
    {
      "inputs": [
        {
          "internalType": "address",
          "name": "newOwner",
          "type": "address"
        }
      ],
      "name": "transferOwnership",
      "outputs": [],
      "stateMutability": "nonpayable",
      "type": "function"
    },
    {
      "inputs": [
        {
          "internalType": "uint256",
          "name": "",
          "type": "uint256"
        }
      ],
      "name": "uri",
      "outputs": [
        {
          "internalType": "string",
          "name": "",
          "type": "string"
        }
      ],
      "stateMutability": "view",
      "type": "function"
    }
  ],
  "bytecode": "0x60806040523480156200001157600080fd5b506040518060800160405280605981526020016200192f60599139620000378162000049565b5062000043336200005b565b6200021e565b600262000057828262000152565b5050565b600380546001600160a01b038381166001600160a01b0319831681179093556040519116919082907f8be0079c531659141344cd1fd0a4f28419497f9722a3daafe3b4186f6b6457e090600090a35050565b634e487b7160e01b600052604160045260246000fd5b600181811c90821680620000d857607f821691505b602082108103620000f957634e487b7160e01b600052602260045260246000fd5b50919050565b601f8211156200014d57600081815260208120601f850160051c81016020861015620001285750805b601f850160051c820191505b81811015620001495782815560010162000134565b5050505b505050565b81516001600160401b038111156200016e576200016e620000ad565b62000186816200017f8454620000c3565b84620000ff565b602080601f831160018114620001be5760008415620001a55750858301515b600019600386901b1c1916600185901b17855562000149565b600085815260208120601f198616915b82811015620001ef57888601518255948401946001909101908401620001ce565b50858210156200020e5787850151600019600388901b60f8161c191681555b5050505050600190811b01905550565b611701806200022e6000396000f3fe608060405234801561001057600080fd5b50600436106100b35760003560e01c8063715018a611610071578063715018a6146101695780638da5cb5b14610171578063a22cb4651461018c578063e985e9c51461019f578063f242432a146101db578063f2fde38b146101ee57600080fd5b8062fdd58e146100b857806301ffc9a7146100de5780630e89341c14610101578063156e29f6146101215780632eb2c2d6146101365780634e1273f414610149575b600080fd5b6100cb6100c6366004610e79565b610201565b6040519081526020015b60405180910390f35b6100f16100ec366004610eb9565b61029a565b60405190151581526020016100d5565b61011461010f366004610edd565b6102ea565b6040516100d59190610f3c565b61013461012f366004610f4f565b61037e565b005b6101346101443660046110ce565b6103fe565b61015c610157366004611178565b61044a565b6040516100d5919061127e565b610134610574565b6003546040516001600160a01b0390911681526020016100d5565b61013461019a366004611291565b610588565b6100f16101ad3660046112cd565b6001600160a01b03918216600090815260016020908152604080832093909416825291909152205460ff1690565b6101346101e9366004611300565b610597565b6101346101fc366004611365565b6105dc565b60006001600160a01b0383166102715760405162461bcd60e51b815260206004820152602a60248201527f455243313135353a2061646472657373207a65726f206973206e6f742061207660448201526930b634b21037bbb732b960b11b60648201526084015b60405180910390fd5b506000818152602081815260408083206001600160a01b03861684529091529020545b92915050565b60006001600160e01b03198216636cdb3d1360e11b14806102cb57506001600160e01b031982166303a24d0760e21b145b8061029457506301ffc9a760e01b6001600160e01b0319831614610294565b6060600280546102f990611380565b80601f016020809104026020016040519081016040528092919081815260200182805461032590611380565b80156103725780601f1061034757610100808354040283529160200191610372565b820191906000526020600020905b81548152906001019060200180831161035557829003601f168201915b50505050509050919050565b600082116103bb5760405162461bcd60e51b815260206004820152600a6024820152691a5b9d985b1a59081a5960b21b6044820152606401610268565b6103d683838360405180602001604052806000815250610655565b600082815260046020526040812080548392906103f49084906113d0565b9091555050505050565b6001600160a01b03851633148061041a575061041a85336101ad565b6104365760405162461bcd60e51b8152600401610268906113e3565b6104438585858585610769565b5050505050565b606081518351146104af5760405162461bcd60e51b815260206004820152602960248201527f455243313135353a206163636f756e747320616e6420696473206c656e677468604482015268040dad2e6dac2e8c6d60bb1b6064820152608401610268565b6000835167ffffffffffffffff8111156104cb576104cb610f82565b6040519080825280602002602001820160405280156104f4578160200160208202803683370190505b50905060005b845181101561056c5761053f85828151811061051857610518611431565b602002602001015185838151811061053257610532611431565b6020026020010151610201565b82828151811061055157610551611431565b602090810291909101015261056581611447565b90506104fa565b509392505050565b61057c610946565b61058660006109a0565b565b6105933383836109f2565b5050565b6001600160a01b0385163314806105b357506105b385336101ad565b6105cf5760405162461bcd60e51b8152600401610268906113e3565b6104438585858585610ad2565b6105e4610946565b6001600160a01b0381166106495760405162461bcd60e51b815260206004820152602660248201527f4f776e61626c653a206e6577206f776e657220697320746865207a65726f206160448201526564647265737360d01b6064820152608401610268565b610652816109a0565b50565b6001600160a01b0384166106b55760405162461bcd60e51b815260206004820152602160248201527f455243313135353a206d696e7420746f20746865207a65726f206164647265736044820152607360f81b6064820152608401610268565b3360006106c185610bfc565b905060006106ce85610bfc565b90506000868152602081815260408083206001600160a01b038b168452909152812080548792906107009084906113d0565b909155505060408051878152602081018790526001600160a01b03808a1692600092918716917fc3d58168c5ae7397731d063d5bbf3d657854427343f4c083240f7aacaa2d0f62910160405180910390a461076083600089898989610c47565b50505050505050565b81518351146107cb5760405162461bcd60e51b815260206004820152602860248201527f455243313135353a2069647320616e6420616d6f756e7473206c656e677468206044820152670dad2e6dac2e8c6d60c31b6064820152608401610268565b6001600160a01b0384166107f15760405162461bcd60e51b815260040161026890611460565b3360005b84518110156108d857600085828151811061081257610812611431565b60200260200101519050600085838151811061083057610830611431565b602090810291909101810151600084815280835260408082206001600160a01b038e1683529093529190912054909150818110156108805760405162461bcd60e51b8152600401610268906114a5565b6000838152602081815260408083206001600160a01b038e8116855292528083208585039055908b168252812080548492906108bd9084906113d0565b92505081905550505050806108d190611447565b90506107f5565b50846001600160a01b0316866001600160a01b0316826001600160a01b03167f4a39dc06d4c0dbc64b70af90fd698a233a518aa5d07e595d983b8c0526c8f7fb87876040516109289291906114ef565b60405180910390a461093e818787878787610da2565b505050505050565b6003546001600160a01b031633146105865760405162461bcd60e51b815260206004820181905260248201527f4f776e61626c653a2063616c6c6572206973206e6f7420746865206f776e65726044820152606401610268565b600380546001600160a01b038381166001600160a01b0319831681179093556040519116919082907f8be0079c531659141344cd1fd0a4f28419497f9722a3daafe3b4186f6b6457e090600090a35050565b816001600160a01b0316836001600160a01b031603610a655760405162461bcd60e51b815260206004820152602960248201527f455243313135353a2073657474696e6720617070726f76616c20737461747573604482015268103337b91039b2b63360b91b6064820152608401610268565b6001600160a01b03838116600081815260016020908152604080832094871680845294825291829020805460ff191686151590811790915591519182527f17307eab39ab6107e8899845ad3d59bd9653f200f220920489ca2b5937696c31910160405180910390a3505050565b6001600160a01b038416610af85760405162461bcd60e51b815260040161026890611460565b336000610b0485610bfc565b90506000610b1185610bfc565b90506000868152602081815260408083206001600160a01b038c16845290915290205485811015610b545760405162461bcd60e51b8152600401610268906114a5565b6000878152602081815260408083206001600160a01b038d8116855292528083208985039055908a16825281208054889290610b919084906113d0565b909155505060408051888152602081018890526001600160a01b03808b16928c821692918816917fc3d58168c5ae7397731d063d5bbf3d657854427343f4c083240f7aacaa2d0f62910160405180910390a4610bf1848a8a8a8a8a610c47565b505050505050505050565b60408051600180825281830190925260609160009190602080830190803683370190505090508281600081518110610c3657610c36611431565b602090810291909101015292915050565b6001600160a01b0384163b1561093e5760405163f23a6e6160e01b81526001600160a01b0385169063f23a6e6190610c8b908990899088908890889060040161151d565b6020604051808303816000875af1925050508015610cc6575060408051601f3d908101601f19168201909252610cc391810190611562565b60015b610d7257610cd261157f565b806308c379a003610d0b5750610ce661159b565b80610cf15750610d0d565b8060405162461bcd60e51b81526004016102689190610f3c565b505b60405162461bcd60e51b815260206004820152603460248201527f455243313135353a207472616e7366657220746f206e6f6e2d455243313135356044820152732932b1b2b4bb32b91034b6b83632b6b2b73a32b960611b6064820152608401610268565b6001600160e01b0319811663f23a6e6160e01b146107605760405162461bcd60e51b815260040161026890611625565b6001600160a01b0384163b1561093e5760405163bc197c8160e01b81526001600160a01b0385169063bc197c8190610de6908990899088908890889060040161166d565b6020604051808303816000875af1925050508015610e21575060408051601f3d908101601f19168201909252610e1e91810190611562565b60015b610e2d57610cd261157f565b6001600160e01b0319811663bc197c8160e01b146107605760405162461bcd60e51b815260040161026890611625565b80356001600160a01b0381168114610e7457600080fd5b919050565b60008060408385031215610e8c57600080fd5b610e9583610e5d565b946020939093013593505050565b6001600160e01b03198116811461065257600080fd5b600060208284031215610ecb57600080fd5b8135610ed681610ea3565b9392505050565b600060208284031215610eef57600080fd5b5035919050565b6000815180845260005b81811015610f1c57602081850181015186830182015201610f00565b506000602082860101526020601f19601f83011685010191505092915050565b602081526000610ed66020830184610ef6565b600080600060608486031215610f6457600080fd5b610f6d84610e5d565b95602085013595506040909401359392505050565b634e487b7160e01b600052604160045260246000fd5b601f8201601f1916810167ffffffffffffffff81118282101715610fbe57610fbe610f82565b6040525050565b600067ffffffffffffffff821115610fdf57610fdf610f82565b5060051b60200190565b600082601f830112610ffa57600080fd5b8135602061100782610fc5565b6040516110148282610f98565b83815260059390931b850182019282810191508684111561103457600080fd5b8286015b8481101561104f5780358352918301918301611038565b509695505050505050565b600082601f83011261106b57600080fd5b813567ffffffffffffffff81111561108557611085610f82565b60405161109c601f8301601f191660200182610f98565b8181528460208386010111156110b157600080fd5b816020850160208301376000918101602001919091529392505050565b600080600080600060a086880312156110e657600080fd5b6110ef86610e5d565b94506110fd60208701610e5d565b9350604086013567ffffffffffffffff8082111561111a57600080fd5b61112689838a01610fe9565b9450606088013591508082111561113c57600080fd5b61114889838a01610fe9565b9350608088013591508082111561115e57600080fd5b5061116b8882890161105a565b9150509295509295909350565b6000806040838503121561118b57600080fd5b823567ffffffffffffffff808211156111a357600080fd5b818501915085601f8301126111b757600080fd5b813560206111c482610fc5565b6040516111d18282610f98565b83815260059390931b85018201928281019150898411156111f157600080fd5b948201945b838610156112165761120786610e5d565b825294820194908201906111f6565b9650508601359250508082111561122c57600080fd5b5061123985828601610fe9565b9150509250929050565b600081518084526020808501945080840160005b8381101561127357815187529582019590820190600101611257565b509495945050505050565b602081526000610ed66020830184611243565b600080604083850312156112a457600080fd5b6112ad83610e5d565b9150602083013580151581146112c257600080fd5b809150509250929050565b600080604083850312156112e057600080fd5b6112e983610e5d565b91506112f760208401610e5d565b90509250929050565b600080600080600060a0868803121561131857600080fd5b61132186610e5d565b945061132f60208701610e5d565b93506040860135925060608601359150608086013567ffffffffffffffff81111561135957600080fd5b61116b8882890161105a565b60006020828403121561137757600080fd5b610ed682610e5d565b600181811c9082168061139457607f821691505b6020821081036113b457634e487b7160e01b600052602260045260246000fd5b50919050565b634e487b7160e01b600052601160045260246000fd5b80820180821115610294576102946113ba565b6020808252602e908201527f455243313135353a2063616c6c6572206973206e6f7420746f6b656e206f776e60408201526d195c881bdc88185c1c1c9bdd995960921b606082015260800190565b634e487b7160e01b600052603260045260246000fd5b600060018201611459576114596113ba565b5060010190565b60208082526025908201527f455243313135353a207472616e7366657220746f20746865207a65726f206164604082015264647265737360d81b606082015260800190565b6020808252602a908201527f455243313135353a20696e73756666696369656e742062616c616e636520666f60408201526939103a3930b739b332b960b11b606082015260800190565b6040815260006115026040830185611243565b82810360208401526115148185611243565b95945050505050565b6001600160a01b03868116825285166020820152604081018490526060810183905260a06080820181905260009061155790830184610ef6565b979650505050505050565b60006020828403121561157457600080fd5b8151610ed681610ea3565b600060033d11156115985760046000803e5060005160e01c5b90565b600060443d10156115a95790565b6040516003193d81016004833e81513d67ffffffffffffffff81602484011181841117156115d957505050505090565b82850191508151818111156115f15750505050505090565b843d870101602082850101111561160b5750505050505090565b61161a60208286010187610f98565b509095945050505050565b60208082526028908201527f455243313135353a204552433131353552656365697665722072656a656374656040820152676420746f6b656e7360c01b606082015260800190565b6001600160a01b0386811682528516602082015260a06040820181905260009061169990830186611243565b82810360608401526116ab8186611243565b905082810360808401526116bf8185610ef6565b9897505050505050505056fea264697066735822122043e6b07181567a7d30a6fccb87a34f401530e1315ee34f47aa39eae5d6f51b5964736f6c6343000812003368747470733a2f2f6261667962656965796136623277693233326762373566326c6e746a756f717834646c736a79337577676266686c66756633326569756a767075612e697066732e647765622e6c696e6b2f312e6a736f6e",
  "linkReferences": {},
  "deployedLinkReferences": {}
}