{
  "_format": "hh-sol-artifact-1",
  "contractName": "NFTmint",
  "sourceName": "contracts/NFTmint.sol",
  "abi": [
    {
      "inputs": [],
      "stateMutability": "nonpayable",
      "type": "constructor"
    },
    {
      "anonymous": false,
      "inputs": [
        {
          "indexed": true,
          "internalType": "address",
          "name": "owner",
          "type": "address"
        },
        {
          "indexed": true,
          "internalType": "address",
          "name": "approved",
          "type": "address"
        },
        {
          "indexed": true,
          "internalType": "uint256",
          "name": "tokenId",
          "type": "uint256"
        }
      ],
      "name": "Approval",
      "type": "event"
    },
    {
      "anonymous": false,
      "inputs": [
        {
          "indexed": true,
          "internalType": "address",
          "name": "owner",
          "type": "address"
        },
        {
          "indexed": true,
          "internalType": "address",
          "name": "operator",
          "type": "address"
        },
        {
          "indexed": false,
          "internalType": "bool",
          "name": "approved",
          "type": "bool"
        }
      ],
      "name": "ApprovalForAll",
      "type": "event"
    },
    {
      "anonymous": false,
      "inputs": [
        {
          "indexed": true,
          "internalType": "address",
          "name": "previousOwner",
          "type": "address"
        },
        {
          "indexed": true,
          "internalType": "address",
          "name": "newOwner",
          "type": "address"
        }
      ],
      "name": "OwnershipTransferred",
      "type": "event"
    },
    {
      "anonymous": false,
      "inputs": [
        {
          "indexed": true,
          "internalType": "address",
          "name": "from",
          "type": "address"
        },
        {
          "indexed": true,
          "internalType": "address",
          "name": "to",
          "type": "address"
        },
        {
          "indexed": true,
          "internalType": "uint256",
          "name": "tokenId",
          "type": "uint256"
        }
      ],
      "name": "Transfer",
      "type": "event"
    },
    {
      "inputs": [
        {
          "internalType": "address",
          "name": "to",
          "type": "address"
        },
        {
          "internalType": "uint256",
          "name": "tokenId",
          "type": "uint256"
        }
      ],
      "name": "approve",
      "outputs": [],
      "stateMutability": "nonpayable",
      "type": "function"
    },
    {
      "inputs": [
        {
          "internalType": "address",
          "name": "owner",
          "type": "address"
        }
      ],
      "name": "balanceOf",
      "outputs": [
        {
          "internalType": "uint256",
          "name": "",
          "type": "uint256"
        }
      ],
      "stateMutability": "view",
      "type": "function"
    },
    {
      "inputs": [
        {
          "internalType": "uint256",
          "name": "tokenId",
          "type": "uint256"
        }
      ],
      "name": "getApproved",
      "outputs": [
        {
          "internalType": "address",
          "name": "",
          "type": "address"
        }
      ],
      "stateMutability": "view",
      "type": "function"
    },
    {
      "inputs": [
        {
          "internalType": "address",
          "name": "owner",
          "type": "address"
        },
        {
          "internalType": "address",
          "name": "operator",
          "type": "address"
        }
      ],
      "name": "isApprovedForAll",
      "outputs": [
        {
          "internalType": "bool",
          "name": "",
          "type": "bool"
        }
      ],
      "stateMutability": "view",
      "type": "function"
    },
    {
      "inputs": [],
      "name": "name",
      "outputs": [
        {
          "internalType": "string",
          "name": "",
          "type": "string"
        }
      ],
      "stateMutability": "view",
      "type": "function"
    },
    {
      "inputs": [],
      "name": "owner",
      "outputs": [
        {
          "internalType": "address",
          "name": "",
          "type": "address"
        }
      ],
      "stateMutability": "view",
      "type": "function"
    },
    {
      "inputs": [
        {
          "internalType": "uint256",
          "name": "tokenId",
          "type": "uint256"
        }
      ],
      "name": "ownerOf",
      "outputs": [
        {
          "internalType": "address",
          "name": "",
          "type": "address"
        }
      ],
      "stateMutability": "view",
      "type": "function"
    },
    {
      "inputs": [],
      "name": "renounceOwnership",
      "outputs": [],
      "stateMutability": "nonpayable",
      "type": "function"
    },
    {
      "inputs": [
        {
          "internalType": "address",
          "name": "_to",
          "type": "address"
        },
        {
          "internalType": "string",
          "name": "uri",
          "type": "string"
        }
      ],
      "name": "safeMint",
      "outputs": [],
      "stateMutability": "nonpayable",
      "type": "function"
    },
    {
      "inputs": [
        {
          "internalType": "address",
          "name": "from",
          "type": "address"
        },
        {
          "internalType": "address",
          "name": "to",
          "type": "address"
        },
        {
          "internalType": "uint256",
          "name": "tokenId",
          "type": "uint256"
        }
      ],
      "name": "safeTransferFrom",
      "outputs": [],
      "stateMutability": "nonpayable",
      "type": "function"
    },
    {
      "inputs": [
        {
          "internalType": "address",
          "name": "from",
          "type": "address"
        },
        {
          "internalType": "address",
          "name": "to",
          "type": "address"
        },
        {
          "internalType": "uint256",
          "name": "tokenId",
          "type": "uint256"
        },
        {
          "internalType": "bytes",
          "name": "data",
          "type": "bytes"
        }
      ],
      "name": "safeTransferFrom",
      "outputs": [],
      "stateMutability": "nonpayable",
      "type": "function"
    },
    {
      "inputs": [
        {
          "internalType": "address",
          "name": "operator",
          "type": "address"
        },
        {
          "internalType": "bool",
          "name": "approved",
          "type": "bool"
        }
      ],
      "name": "setApprovalForAll",
      "outputs": [],
      "stateMutability": "nonpayable",
      "type": "function"
    },
    {
      "inputs": [
        {
          "internalType": "bytes4",
          "name": "interfaceId",
          "type": "bytes4"
        }
      ],
      "name": "supportsInterface",
      "outputs": [
        {
          "internalType": "bool",
          "name": "",
          "type": "bool"
        }
      ],
      "stateMutability": "view",
      "type": "function"
    },
    {
      "inputs": [],
      "name": "symbol",
      "outputs": [
        {
          "internalType": "string",
          "name": "",
          "type": "string"
        }
      ],
      "stateMutability": "view",
      "type": "function"
    },
    {
      "inputs": [
        {
          "internalType": "uint256",
          "name": "tokenId",
          "type": "uint256"
        }
      ],
      "name": "tokenURI",
      "outputs": [
        {
          "internalType": "string",
          "name": "",
          "type": "string"
        }
      ],
      "stateMutability": "view",
      "type": "function"
    },
    {
      "inputs": [],
      "name": "totalSupply",
      "outputs": [
        {
          "internalType": "uint256",
          "name": "",
          "type": "uint256"
        }
      ],
      "stateMutability": "view",
      "type": "function"
    },
    {
      "inputs": [
        {
          "internalType": "address",
          "name": "from",
          "type": "address"
        },
        {
          "internalType": "address",
          "name": "to",
          "type": "address"
        },
        {
          "internalType": "uint256",
          "name": "tokenId",
          "type": "uint256"
        }
      ],
      "name": "transferFrom",
      "outputs": [],
      "stateMutability": "nonpayable",
      "type": "function"
    },
    {
      "inputs": [
        {
          "internalType": "address",
          "name": "newOwner",
          "type": "address"
        }
      ],
      "name": "transferOwnership",
      "outputs": [],
      "stateMutability": "nonpayable",
      "type": "function"
    }
  ],
  "bytecode": "0x60806040523480156200001157600080fd5b506040518060400160405280600681526020016542686f6f6d6960d01b81525060405180604001604052806005815260200164424d37323160d81b81525081600090816200006091906200018d565b5060016200006f82826200018d565b5050506200008c620000866200009260201b60201c565b62000096565b62000259565b3390565b600780546001600160a01b038381166001600160a01b0319831681179093556040519116919082907f8be0079c531659141344cd1fd0a4f28419497f9722a3daafe3b4186f6b6457e090600090a35050565b634e487b7160e01b600052604160045260246000fd5b600181811c908216806200011357607f821691505b6020821081036200013457634e487b7160e01b600052602260045260246000fd5b50919050565b601f8211156200018857600081815260208120601f850160051c81016020861015620001635750805b601f850160051c820191505b8181101562000184578281556001016200016f565b5050505b505050565b81516001600160401b03811115620001a957620001a9620000e8565b620001c181620001ba8454620000fe565b846200013a565b602080601f831160018114620001f95760008415620001e05750858301515b600019600386901b1c1916600185901b17855562000184565b600085815260208120601f198616915b828110156200022a5788860151825594840194600190910190840162000209565b5085821015620002495787850151600019600388901b60f8161c191681555b5050505050600190811b01905550565b6117fa80620002696000396000f3fe608060405234801561001057600080fd5b50600436106101165760003560e01c8063715018a6116100a2578063b88d4fde11610071578063b88d4fde1461022e578063c87b56dd14610241578063d204c45e14610254578063e985e9c514610267578063f2fde38b146102a357600080fd5b8063715018a6146101fa5780638da5cb5b1461020257806395d89b4114610213578063a22cb4651461021b57600080fd5b806318160ddd116100e957806318160ddd1461019857806323b872dd146101ae57806342842e0e146101c15780636352211e146101d457806370a08231146101e757600080fd5b806301ffc9a71461011b57806306fdde0314610143578063081812fc14610158578063095ea7b314610183575b600080fd5b61012e610129366004611200565b6102b6565b60405190151581526020015b60405180910390f35b61014b610308565b60405161013a919061126d565b61016b610166366004611280565b61039a565b6040516001600160a01b03909116815260200161013a565b6101966101913660046112b5565b6103c1565b005b6101a06104db565b60405190815260200161013a565b6101966101bc3660046112df565b6104eb565b6101966101cf3660046112df565b61051c565b61016b6101e2366004611280565b610537565b6101a06101f536600461131b565b610597565b61019661061d565b6007546001600160a01b031661016b565b61014b610631565b610196610229366004611336565b610640565b61019661023c3660046113fe565b61064f565b61014b61024f366004611280565b610687565b61019661026236600461147a565b610692565b61012e6102753660046114dc565b6001600160a01b03918216600090815260056020908152604080832093909416825291909152205460ff1690565b6101966102b136600461131b565b6106c1565b60006001600160e01b031982166380ac58cd60e01b14806102e757506001600160e01b03198216635b5e139f60e01b145b8061030257506301ffc9a760e01b6001600160e01b03198316145b92915050565b6060600080546103179061150f565b80601f01602080910402602001604051908101604052809291908181526020018280546103439061150f565b80156103905780601f1061036557610100808354040283529160200191610390565b820191906000526020600020905b81548152906001019060200180831161037357829003601f168201915b5050505050905090565b60006103a58261073a565b506000908152600460205260409020546001600160a01b031690565b60006103cc82610537565b9050806001600160a01b0316836001600160a01b03160361043e5760405162461bcd60e51b815260206004820152602160248201527f4552433732313a20617070726f76616c20746f2063757272656e74206f776e656044820152603960f91b60648201526084015b60405180910390fd5b336001600160a01b038216148061045a575061045a8133610275565b6104cc5760405162461bcd60e51b815260206004820152603d60248201527f4552433732313a20617070726f76652063616c6c6572206973206e6f7420746f60448201527f6b656e206f776e6572206f7220617070726f76656420666f7220616c6c0000006064820152608401610435565b6104d68383610799565b505050565b60006104e660085490565b905090565b6104f53382610807565b6105115760405162461bcd60e51b815260040161043590611549565b6104d6838383610886565b6104d68383836040518060200160405280600081525061064f565b6000818152600260205260408120546001600160a01b0316806103025760405162461bcd60e51b8152602060048201526018602482015277115490cdcc8c4e881a5b9d985b1a59081d1bdad95b88125160421b6044820152606401610435565b60006001600160a01b0382166106015760405162461bcd60e51b815260206004820152602960248201527f4552433732313a2061646472657373207a65726f206973206e6f7420612076616044820152683634b21037bbb732b960b91b6064820152608401610435565b506001600160a01b031660009081526003602052604090205490565b6106256109ea565b61062f6000610a44565b565b6060600180546103179061150f565b61064b338383610a96565b5050565b6106593383610807565b6106755760405162461bcd60e51b815260040161043590611549565b61068184848484610b64565b50505050565b606061030282610b97565b600061069d60085490565b90506106ad600880546001019055565b6106b78382610c9f565b6104d68183610cb9565b6106c96109ea565b6001600160a01b03811661072e5760405162461bcd60e51b815260206004820152602660248201527f4f776e61626c653a206e6577206f776e657220697320746865207a65726f206160448201526564647265737360d01b6064820152608401610435565b61073781610a44565b50565b6000818152600260205260409020546001600160a01b03166107375760405162461bcd60e51b8152602060048201526018602482015277115490cdcc8c4e881a5b9d985b1a59081d1bdad95b88125160421b6044820152606401610435565b600081815260046020526040902080546001600160a01b0319166001600160a01b03841690811790915581906107ce82610537565b6001600160a01b03167f8c5be1e5ebec7d5bd14f71427d1e84f3dd0314c0f7b2291e5b200ac8c7c3b92560405160405180910390a45050565b60008061081383610537565b9050806001600160a01b0316846001600160a01b0316148061085a57506001600160a01b0380821660009081526005602090815260408083209388168352929052205460ff165b8061087e5750836001600160a01b03166108738461039a565b6001600160a01b0316145b949350505050565b826001600160a01b031661089982610537565b6001600160a01b0316146108bf5760405162461bcd60e51b815260040161043590611596565b6001600160a01b0382166109215760405162461bcd60e51b8152602060048201526024808201527f4552433732313a207472616e7366657220746f20746865207a65726f206164646044820152637265737360e01b6064820152608401610435565b826001600160a01b031661093482610537565b6001600160a01b03161461095a5760405162461bcd60e51b815260040161043590611596565b600081815260046020908152604080832080546001600160a01b03199081169091556001600160a01b0387811680865260038552838620805460001901905590871680865283862080546001019055868652600290945282852080549092168417909155905184937fddf252ad1be2c89b69c2b068fc378daa952ba7f163c4a11628f55a4df523b3ef91a4505050565b6007546001600160a01b0316331461062f5760405162461bcd60e51b815260206004820181905260248201527f4f776e61626c653a2063616c6c6572206973206e6f7420746865206f776e65726044820152606401610435565b600780546001600160a01b038381166001600160a01b0319831681179093556040519116919082907f8be0079c531659141344cd1fd0a4f28419497f9722a3daafe3b4186f6b6457e090600090a35050565b816001600160a01b0316836001600160a01b031603610af75760405162461bcd60e51b815260206004820152601960248201527f4552433732313a20617070726f766520746f2063616c6c6572000000000000006044820152606401610435565b6001600160a01b03838116600081815260056020908152604080832094871680845294825291829020805460ff191686151590811790915591519182527f17307eab39ab6107e8899845ad3d59bd9653f200f220920489ca2b5937696c31910160405180910390a3505050565b610b6f848484610886565b610b7b84848484610d4c565b6106815760405162461bcd60e51b8152600401610435906115db565b6060610ba28261073a565b60008281526006602052604081208054610bbb9061150f565b80601f0160208091040260200160405190810160405280929190818152602001828054610be79061150f565b8015610c345780601f10610c0957610100808354040283529160200191610c34565b820191906000526020600020905b815481529060010190602001808311610c1757829003601f168201915b505050505090506000610c5260408051602081019091526000815290565b90508051600003610c64575092915050565b815115610c96578082604051602001610c7e92919061162d565b60405160208183030381529060405292505050919050565b61087e84610e4d565b61064b828260405180602001604052806000815250610ec1565b6000828152600260205260409020546001600160a01b0316610d345760405162461bcd60e51b815260206004820152602e60248201527f45524337323155524953746f726167653a2055524920736574206f66206e6f6e60448201526d32bc34b9ba32b73a103a37b5b2b760911b6064820152608401610435565b60008281526006602052604090206104d682826116aa565b60006001600160a01b0384163b15610e4257604051630a85bd0160e11b81526001600160a01b0385169063150b7a0290610d9090339089908890889060040161176a565b6020604051808303816000875af1925050508015610dcb575060408051601f3d908101601f19168201909252610dc8918101906117a7565b60015b610e28573d808015610df9576040519150601f19603f3d011682016040523d82523d6000602084013e610dfe565b606091505b508051600003610e205760405162461bcd60e51b8152600401610435906115db565b805181602001fd5b6001600160e01b031916630a85bd0160e11b14905061087e565b506001949350505050565b6060610e588261073a565b6000610e6f60408051602081019091526000815290565b90506000815111610e8f5760405180602001604052806000815250610eba565b80610e9984610ef4565b604051602001610eaa92919061162d565b6040516020818303038152906040525b9392505050565b610ecb8383610f87565b610ed86000848484610d4c565b6104d65760405162461bcd60e51b8152600401610435906115db565b60606000610f0183611112565b600101905060008167ffffffffffffffff811115610f2157610f21611372565b6040519080825280601f01601f191660200182016040528015610f4b576020820181803683370190505b5090508181016020015b600019016f181899199a1a9b1b9c1cb0b131b232b360811b600a86061a8153600a8504945084610f5557509392505050565b6001600160a01b038216610fdd5760405162461bcd60e51b815260206004820181905260248201527f4552433732313a206d696e7420746f20746865207a65726f20616464726573736044820152606401610435565b6000818152600260205260409020546001600160a01b0316156110425760405162461bcd60e51b815260206004820152601c60248201527f4552433732313a20746f6b656e20616c7265616479206d696e746564000000006044820152606401610435565b6000818152600260205260409020546001600160a01b0316156110a75760405162461bcd60e51b815260206004820152601c60248201527f4552433732313a20746f6b656e20616c7265616479206d696e746564000000006044820152606401610435565b6001600160a01b038216600081815260036020908152604080832080546001019055848352600290915280822080546001600160a01b0319168417905551839291907fddf252ad1be2c89b69c2b068fc378daa952ba7f163c4a11628f55a4df523b3ef908290a45050565b60008072184f03e93ff9f4daa797ed6e38ed64bf6a1f0160401b83106111515772184f03e93ff9f4daa797ed6e38ed64bf6a1f0160401b830492506040015b6d04ee2d6d415b85acef8100000000831061117d576d04ee2d6d415b85acef8100000000830492506020015b662386f26fc10000831061119b57662386f26fc10000830492506010015b6305f5e10083106111b3576305f5e100830492506008015b61271083106111c757612710830492506004015b606483106111d9576064830492506002015b600a83106103025760010192915050565b6001600160e01b03198116811461073757600080fd5b60006020828403121561121257600080fd5b8135610eba816111ea565b60005b83811015611238578181015183820152602001611220565b50506000910152565b6000815180845261125981602086016020860161121d565b601f01601f19169290920160200192915050565b602081526000610eba6020830184611241565b60006020828403121561129257600080fd5b5035919050565b80356001600160a01b03811681146112b057600080fd5b919050565b600080604083850312156112c857600080fd5b6112d183611299565b946020939093013593505050565b6000806000606084860312156112f457600080fd5b6112fd84611299565b925061130b60208501611299565b9150604084013590509250925092565b60006020828403121561132d57600080fd5b610eba82611299565b6000806040838503121561134957600080fd5b61135283611299565b91506020830135801515811461136757600080fd5b809150509250929050565b634e487b7160e01b600052604160045260246000fd5b600067ffffffffffffffff808411156113a3576113a3611372565b604051601f8501601f19908116603f011681019082821181831017156113cb576113cb611372565b816040528093508581528686860111156113e457600080fd5b858560208301376000602087830101525050509392505050565b6000806000806080858703121561141457600080fd5b61141d85611299565b935061142b60208601611299565b925060408501359150606085013567ffffffffffffffff81111561144e57600080fd5b8501601f8101871361145f57600080fd5b61146e87823560208401611388565b91505092959194509250565b6000806040838503121561148d57600080fd5b61149683611299565b9150602083013567ffffffffffffffff8111156114b257600080fd5b8301601f810185136114c357600080fd5b6114d285823560208401611388565b9150509250929050565b600080604083850312156114ef57600080fd5b6114f883611299565b915061150660208401611299565b90509250929050565b600181811c9082168061152357607f821691505b60208210810361154357634e487b7160e01b600052602260045260246000fd5b50919050565b6020808252602d908201527f4552433732313a2063616c6c6572206973206e6f7420746f6b656e206f776e6560408201526c1c881bdc88185c1c1c9bdd9959609a1b606082015260800190565b60208082526025908201527f4552433732313a207472616e736665722066726f6d20696e636f72726563742060408201526437bbb732b960d91b606082015260800190565b60208082526032908201527f4552433732313a207472616e7366657220746f206e6f6e20455243373231526560408201527131b2b4bb32b91034b6b83632b6b2b73a32b960711b606082015260800190565b6000835161163f81846020880161121d565b83519083019061165381836020880161121d565b01949350505050565b601f8211156104d657600081815260208120601f850160051c810160208610156116835750805b601f850160051c820191505b818110156116a25782815560010161168f565b505050505050565b815167ffffffffffffffff8111156116c4576116c4611372565b6116d8816116d2845461150f565b8461165c565b602080601f83116001811461170d57600084156116f55750858301515b600019600386901b1c1916600185901b1785556116a2565b600085815260208120601f198616915b8281101561173c5788860151825594840194600190910190840161171d565b508582101561175a5787850151600019600388901b60f8161c191681555b5050505050600190811b01905550565b6001600160a01b038581168252841660208201526040810183905260806060820181905260009061179d90830184611241565b9695505050505050565b6000602082840312156117b957600080fd5b8151610eba816111ea56fea264697066735822122073682dcf8afd86881057545a595ad388d048af60eb9b07d602327ac3b8433f2964736f6c63430008120033",
  "linkReferences": {},
  "deployedLinkReferences": {}
}